{"abi":[{"type":"constructor","inputs":[{"name":"admin","type":"address","internalType":"address"},{"name":"_oracle","type":"address","internalType":"address"},{"name":"_token","type":"address","internalType":"address"},{"name":"_ccidRegistry","type":"address","internalType":"address"}],"stateMutability":"nonpayable"},{"type":"function","name":"DEFAULT_ADMIN_ROLE","inputs":[],"outputs":[{"name":"","type":"bytes32","internalType":"bytes32"}],"stateMutability":"view"},{"type":"function","name":"MAX_SINGLE_MINT","inputs":[],"outputs":[{"name":"","type":"uint256","internalType":"uint256"}],"stateMutability":"view"},{"type":"function","name":"ORACLE_ROLE","inputs":[],"outputs":[{"name":"","type":"bytes32","internalType":"bytes32"}],"stateMutability":"view"},{"type":"function","name":"bankLicenseRevoked","inputs":[],"outputs":[{"name":"","type":"bool","internalType":"bool"}],"stateMutability":"view"},{"type":"function","name":"ccidRegistry","inputs":[],"outputs":[{"name":"","type":"address","internalType":"contract ICCIDRegistry"}],"stateMutability":"view"},{"type":"function","name":"executeCCIDRegistryUpdate","inputs":[],"outputs":[],"stateMutability":"nonpayable"},{"type":"function","name":"executeOracleUpdate","inputs":[],"outputs":[],"stateMutability":"nonpayable"},{"type":"function","name":"getRoleAdmin","inputs":[{"name":"role","type":"bytes32","internalType":"bytes32"}],"outputs":[{"name":"","type":"bytes32","internalType":"bytes32"}],"stateMutability":"view"},{"type":"function","name":"grantRole","inputs":[{"name":"role","type":"bytes32","internalType":"bytes32"},{"name":"account","type":"address","internalType":"address"}],"outputs":[],"stateMutability":"nonpayable"},{"type":"function","name":"hasRole","inputs":[{"name":"role","type":"bytes32","internalType":"bytes32"},{"name":"account","type":"address","internalType":"address"}],"outputs":[{"name":"","type":"bool","internalType":"bool"}],"stateMutability":"view"},{"type":"function","name":"mint","inputs":[{"name":"txId","type":"bytes32","internalType":"bytes32"}],"outputs":[],"stateMutability":"nonpayable"},{"type":"function","name":"oracle","inputs":[],"outputs":[{"name":"","type":"address","internalType":"contract IFiatDepositOracle"}],"stateMutability":"view"},{"type":"function","name":"pendingCCIDRegistry","inputs":[],"outputs":[{"name":"","type":"address","internalType":"address"}],"stateMutability":"view"},{"type":"function","name":"pendingCCIDRegistryTime","inputs":[],"outputs":[{"name":"","type":"uint256","internalType":"uint256"}],"stateMutability":"view"},{"type":"function","name":"pendingOracle","inputs":[],"outputs":[{"name":"","type":"address","internalType":"address"}],"stateMutability":"view"},{"type":"function","name":"pendingOracleTime","inputs":[],"outputs":[{"name":"","type":"uint256","internalType":"uint256"}],"stateMutability":"view"},{"type":"function","name":"renounceRole","inputs":[{"name":"role","type":"bytes32","internalType":"bytes32"},{"name":"callerConfirmation","type":"address","internalType":"address"}],"outputs":[],"stateMutability":"nonpayable"},{"type":"function","name":"restoreBankLicense","inputs":[],"outputs":[],"stateMutability":"nonpayable"},{"type":"function","name":"revokeBankLicense","inputs":[],"outputs":[],"stateMutability":"nonpayable"},{"type":"function","name":"revokeRole","inputs":[{"name":"role","type":"bytes32","internalType":"bytes32"},{"name":"account","type":"address","internalType":"address"}],"outputs":[],"stateMutability":"nonpayable"},{"type":"function","name":"supportsInterface","inputs":[{"name":"interfaceId","type":"bytes4","internalType":"bytes4"}],"outputs":[{"name":"","type":"bool","internalType":"bool"}],"stateMutability":"view"},{"type":"function","name":"token","inputs":[],"outputs":[{"name":"","type":"address","internalType":"contract StablecoinBOB"}],"stateMutability":"view"},{"type":"function","name":"updateCCIDRegistry","inputs":[{"name":"_ccidRegistry","type":"address","internalType":"address"}],"outputs":[],"stateMutability":"nonpayable"},{"type":"function","name":"updateOracle","inputs":[{"name":"_oracle","type":"address","internalType":"address"}],"outputs":[],"stateMutability":"nonpayable"},{"type":"event","name":"BankLicenseRestored","inputs":[{"name":"timestamp","type":"uint256","indexed":false,"internalType":"uint256"}],"anonymous":false},{"type":"event","name":"BankLicenseRevoked","inputs":[{"name":"timestamp","type":"uint256","indexed":false,"internalType":"uint256"}],"anonymous":false},{"type":"event","name":"CCIDRegistryUpdateQueued","inputs":[{"name":"newCCIDRegistry","type":"address","indexed":false,"internalType":"address"},{"name":"executeAfter","type":"uint256","indexed":false,"internalType":"uint256"}],"anonymous":false},{"type":"event","name":"CCIDRegistryUpdated","inputs":[{"name":"oldCCIDRegistry","type":"address","indexed":false,"internalType":"address"},{"name":"newCCIDRegistry","type":"address","indexed":false,"internalType":"address"}],"anonymous":false},{"type":"event","name":"Minted","inputs":[{"name":"txId","type":"bytes32","indexed":true,"internalType":"bytes32"},{"name":"user","type":"address","indexed":true,"internalType":"address"},{"name":"amount","type":"uint256","indexed":false,"internalType":"uint256"}],"anonymous":false},{"type":"event","name":"OracleUpdateQueued","inputs":[{"name":"newOracle","type":"address","indexed":false,"internalType":"address"},{"name":"executeAfter","type":"uint256","indexed":false,"internalType":"uint256"}],"anonymous":false},{"type":"event","name":"OracleUpdated","inputs":[{"name":"oldOracle","type":"address","indexed":false,"internalType":"address"},{"name":"newOracle","type":"address","indexed":false,"internalType":"address"}],"anonymous":false},{"type":"event","name":"RoleAdminChanged","inputs":[{"name":"role","type":"bytes32","indexed":true,"internalType":"bytes32"},{"name":"previousAdminRole","type":"bytes32","indexed":true,"internalType":"bytes32"},{"name":"newAdminRole","type":"bytes32","indexed":true,"internalType":"bytes32"}],"anonymous":false},{"type":"event","name":"RoleGranted","inputs":[{"name":"role","type":"bytes32","indexed":true,"internalType":"bytes32"},{"name":"account","type":"address","indexed":true,"internalType":"address"},{"name":"sender","type":"address","indexed":true,"internalType":"address"}],"anonymous":false},{"type":"event","name":"RoleRevoked","inputs":[{"name":"role","type":"bytes32","indexed":true,"internalType":"bytes32"},{"name":"account","type":"address","indexed":true,"internalType":"address"},{"name":"sender","type":"address","indexed":true,"internalType":"address"}],"anonymous":false},{"type":"error","name":"AccessControlBadConfirmation","inputs":[]},{"type":"error","name":"AccessControlUnauthorizedAccount","inputs":[{"name":"account","type":"address","internalType":"address"},{"name":"neededRole","type":"bytes32","internalType":"bytes32"}]},{"type":"error","name":"BankLicenseIsRevoked","inputs":[]},{"type":"error","name":"DepositAlreadyMinted","inputs":[]},{"type":"error","name":"DepositExpired","inputs":[]},{"type":"error","name":"InsufficientReserves","inputs":[]},{"type":"error","name":"InvalidCCID","inputs":[]},{"type":"error","name":"InvalidDeposit","inputs":[]},{"type":"error","name":"MintLimitExceeded","inputs":[]},{"type":"error","name":"NoUpdateQueued","inputs":[]},{"type":"error","name":"ReentrancyGuardReentrantCall","inputs":[]},{"type":"error","name":"ReservesStale","inputs":[]},{"type":"error","name":"TimelockNotElapsed","inputs":[]}],"bytecode":{"object":"0x608060405234801562000010575f80fd5b50604051620010f7380380620010f7833981016040819052620000339162000150565b60018055620000435f8562000088565b50600280546001600160a01b039485166001600160a01b03199182161790915560038054938516938216939093179092556004805491909316911617905550620001aa565b5f828152602081815260408083206001600160a01b038516845290915281205460ff166200012b575f838152602081815260408083206001600160a01b03861684529091529020805460ff19166001179055620000e23390565b6001600160a01b0316826001600160a01b0316847f2f8788117e7eff1d82e926ec794901d17c78024a50270940304540a733656f0d60405160405180910390a45060016200012e565b505f5b92915050565b80516001600160a01b03811681146200014b575f80fd5b919050565b5f805f806080858703121562000164575f80fd5b6200016f8562000134565b93506200017f6020860162000134565b92506200018f6040860162000134565b91506200019f6060860162000134565b905092959194509250565b610f3f80620001b85f395ff3fe608060405234801561000f575f80fd5b5060043610610153575f3560e01c80637dc0d1d0116100bf578063adf2cead11610079578063adf2cead146102c1578063c94c9c62146102d4578063d547741f146102e7578063e20438fe146102fa578063e515aa111461030b578063fc0c546a1461031f575f80fd5b80637dc0d1d0146102705780638b024ec31461028357806390084f991461029657806391d148541461029f578063a17f2bd6146102b2578063a217fddf146102ba575f80fd5b806336568abe1161011057806336568abe146102295780633a7678691461023c57806345430d151461024457806345e6288114610257578063625cf2451461025f57806367a69b2714610268575f80fd5b806301ffc9a7146101575780630607e5bb1461017f57806307e2cea5146101aa5780631cb44dfc146101df578063248a9ca3146101f45780632f2ff15d14610216575b5f80fd5b61016a610165366004610d7d565b610332565b60405190151581526020015b60405180910390f35b600554610192906001600160a01b031681565b6040516001600160a01b039091168152602001610176565b6101d17f68e79a7bf1e0bc45d0a330c573bc367f9cf464fd326078812f301165fbda4ef181565b604051908152602001610176565b6101f26101ed366004610dbf565b610368565b005b6101d1610202366004610dda565b5f9081526020819052604090206001015490565b6101f2610224366004610df1565b6103e7565b6101f2610237366004610df1565b610411565b6101f2610449565b600754610192906001600160a01b031681565b6101f26104a3565b6101d160085481565b6101f2610571565b600254610192906001600160a01b031681565b6101f2610291366004610dbf565b61063f565b6101d160065481565b61016a6102ad366004610df1565b6106b6565b6101f26106de565b6101d15f81565b6101f26102cf366004610dda565b610725565b600454610192906001600160a01b031681565b6101f26102f5366004610df1565b610bed565b6101d16969e10de76676d080000081565b60045461016a90600160a01b900460ff1681565b600354610192906001600160a01b031681565b5f6001600160e01b03198216637965db0b60e01b148061036257506301ffc9a760e01b6001600160e01b03198316145b92915050565b5f61037281610c11565b600580546001600160a01b0319166001600160a01b03841617905561039a6202a30042610e1f565b6006819055604080516001600160a01b038516815260208101929092527fadfbbb3e7f80f717892abe640eabe0d30c7a5dc130f0730567b134429966b6d991015b60405180910390a15050565b5f8281526020819052604090206001015461040181610c11565b61040b8383610c1e565b50505050565b6001600160a01b038116331461043a5760405163334bd91960e11b815260040160405180910390fd5b6104448282610cad565b505050565b5f61045381610c11565b6004805460ff60a01b1916600160a01b1790556040517fa76e178b878722fe712cc76fa64a36e9012b4be28db8a038341ab4f868fb007f906104989042815260200190565b60405180910390a150565b5f6104ad81610c11565b6005546001600160a01b03166104d65760405163c7dba29760e01b815260040160405180910390fd5b6006544210156104f95760405163333bd2cb60e11b815260040160405180910390fd5b600280546005546001600160a01b039081166001600160a01b031983168117909355604080519190921680825260208201939093527f078c3b417dadf69374a59793b829c52001247130433427049317bde56607b1b7910160405180910390a15050600580546001600160a01b03191690555f600655565b5f61057b81610c11565b6007546001600160a01b03166105a45760405163c7dba29760e01b815260040160405180910390fd5b6008544210156105c75760405163333bd2cb60e11b815260040160405180910390fd5b600480546007546001600160a01b039081166001600160a01b031983168117909355604080519190921680825260208201939093527f46591d742aa6a6e38ea65586285a27f19e4f86c92f2c6eb5055c3075f2434f7e910160405180910390a15050600780546001600160a01b03191690555f600855565b5f61064981610c11565b600780546001600160a01b0319166001600160a01b0384161790556106716202a30042610e1f565b6008819055604080516001600160a01b038516815260208101929092527f70a6c8a5ccc0b61ebaa139dbca03c3453141b2c52a2e17cd2b7b56fd66a66a3191016103db565b5f918252602082815260408084206001600160a01b0393909316845291905290205460ff1690565b5f6106e881610c11565b6004805460ff60a01b191690556040514281527ff4842aafe46cbde7ab478c43e2735caec8d639c5be7c48add5208058120aa2bb90602001610498565b7f68e79a7bf1e0bc45d0a330c573bc367f9cf464fd326078812f301165fbda4ef161074f81610c11565b610757610d16565b600454600160a01b900460ff161561078257604051633d5e4e0b60e21b815260040160405180910390fd5b600254604051637a86983f60e01b8152600481018490525f916001600160a01b031690637a86983f9060240160a060405180830381865afa1580156107c9573d5f803e3d5ffd5b505050506040513d601f19601f820116820180604052508101906107ed9190610e52565b905080606001515f0361081357604051635972996f60e11b815260040160405180910390fd5b80608001511561083657604051636f3bed8f60e11b815260040160405180910390fd5b4262015180826060015161084a9190610e1f565b1015610869576040516380040f8d60e01b815260040160405180910390fd5b600480546020830151604051638b1b925f60e01b81526001600160a01b03918216938101939093521690638b1b925f90602401602060405180830381865afa1580156108b7573d5f803e3d5ffd5b505050506040513d601f19601f820116820180604052508101906108db9190610ed9565b6108f857604051635c6a31e160e01b815260040160405180910390fd5b6969e10de76676d08000008160400151111561092757604051635b21dfd360e11b815260040160405180910390fd5b60025f9054906101000a90046001600160a01b03166001600160a01b0316631fe8a3ab6040518163ffffffff1660e01b8152600401602060405180830381865afa158015610977573d5f803e3d5ffd5b505050506040513d601f19601f8201168201806040525081019061099b9190610ed9565b156109b95760405163a95367cb60e01b815260040160405180910390fd5b806040015160035f9054906101000a90046001600160a01b03166001600160a01b03166318160ddd6040518163ffffffff1660e01b8152600401602060405180830381865afa158015610a0e573d5f803e3d5ffd5b505050506040513d601f19601f82011682018060405250810190610a329190610ef2565b610a3c9190610e1f565b60025f9054906101000a90046001600160a01b03166001600160a01b031663242693d36040518163ffffffff1660e01b8152600401602060405180830381865afa158015610a8c573d5f803e3d5ffd5b505050506040513d601f19601f82011682018060405250810190610ab09190610ef2565b1015610acf5760405163128bd24d60e31b815260040160405180910390fd5b60025460405163710f4f0760e11b8152600481018590526001600160a01b039091169063e21e9e0e906024015f604051808303815f87803b158015610b12575f80fd5b505af1158015610b24573d5f803e3d5ffd5b5050600354602084015160408086015190516340c10f1960e01b81526001600160a01b0392831660048201526024810191909152911692506340c10f1991506044015f604051808303815f87803b158015610b7d575f80fd5b505af1158015610b8f573d5f803e3d5ffd5b5050505080602001516001600160a01b0316837f1a49076e0e8c733171c5360d78c9ae8e19fef5a0720b926e72f78b7cc37618cd8360400151604051610bd791815260200190565b60405180910390a350610be960018055565b5050565b5f82815260208190526040902060010154610c0781610c11565b61040b8383610cad565b610c1b8133610d40565b50565b5f610c2983836106b6565b610ca6575f838152602081815260408083206001600160a01b03861684529091529020805460ff19166001179055610c5e3390565b6001600160a01b0316826001600160a01b0316847f2f8788117e7eff1d82e926ec794901d17c78024a50270940304540a733656f0d60405160405180910390a4506001610362565b505f610362565b5f610cb883836106b6565b15610ca6575f838152602081815260408083206001600160a01b0386168085529252808320805460ff1916905551339286917ff6391f5c32d9c69d2a47ea670b442974b53935d1edc7fd64eb21e047a839171b9190a4506001610362565b600260015403610d3957604051633ee5aeb560e01b815260040160405180910390fd5b6002600155565b610d4a82826106b6565b610be95760405163e2517d3f60e01b81526001600160a01b03821660048201526024810183905260440160405180910390fd5b5f60208284031215610d8d575f80fd5b81356001600160e01b031981168114610da4575f80fd5b9392505050565b6001600160a01b0381168114610c1b575f80fd5b5f60208284031215610dcf575f80fd5b8135610da481610dab565b5f60208284031215610dea575f80fd5b5035919050565b5f8060408385031215610e02575f80fd5b823591506020830135610e1481610dab565b809150509250929050565b8082018082111561036257634e487b7160e01b5f52601160045260245ffd5b80518015158114610e4d575f80fd5b919050565b5f60a08284031215610e62575f80fd5b60405160a0810181811067ffffffffffffffff82111715610e9157634e487b7160e01b5f52604160045260245ffd5b604052825181526020830151610ea681610dab565b806020830152506040830151604082015260608301516060820152610ecd60808401610e3e565b60808201529392505050565b5f60208284031215610ee9575f80fd5b610da482610e3e565b5f60208284031215610f02575f80fd5b505191905056fea264697066735822122055b00a2b1347d710d7e550ca4610c5487fe384d6d1727fe1ef0a950aec02c0a664736f6c63430008180033","linkReferences":{}},"methodIdentifiers":{"DEFAULT_ADMIN_ROLE()":"a217fddf","MAX_SINGLE_MINT()":"e20438fe","ORACLE_ROLE()":"07e2cea5","bankLicenseRevoked()":"e515aa11","ccidRegistry()":"c94c9c62","executeCCIDRegistryUpdate()":"67a69b27","executeOracleUpdate()":"45e62881","getRoleAdmin(bytes32)":"248a9ca3","grantRole(bytes32,address)":"2f2ff15d","hasRole(bytes32,address)":"91d14854","mint(bytes32)":"adf2cead","oracle()":"7dc0d1d0","pendingCCIDRegistry()":"45430d15","pendingCCIDRegistryTime()":"625cf245","pendingOracle()":"0607e5bb","pendingOracleTime()":"90084f99","renounceRole(bytes32,address)":"36568abe","restoreBankLicense()":"a17f2bd6","revokeBankLicense()":"3a767869","revokeRole(bytes32,address)":"d547741f","supportsInterface(bytes4)":"01ffc9a7","token()":"fc0c546a","updateCCIDRegistry(address)":"8b024ec3","updateOracle(address)":"1cb44dfc"},"id":36}