{"abi":[{"type":"constructor","inputs":[{"name":"admin","type":"address","internalType":"address"},{"name":"_ccidRegistry","type":"address","internalType":"address"}],"stateMutability":"nonpayable"},{"type":"function","name":"DEFAULT_ADMIN_ROLE","inputs":[],"outputs":[{"name":"","type":"bytes32","internalType":"bytes32"}],"stateMutability":"view"},{"type":"function","name":"OPERATOR_ROLE","inputs":[],"outputs":[{"name":"","type":"bytes32","internalType":"bytes32"}],"stateMutability":"view"},{"type":"function","name":"POLICY_ENFORCER_ROLE","inputs":[],"outputs":[{"name":"","type":"bytes32","internalType":"bytes32"}],"stateMutability":"view"},{"type":"function","name":"addToSanctions","inputs":[{"name":"wallet","type":"address","internalType":"address"}],"outputs":[],"stateMutability":"nonpayable"},{"type":"function","name":"ccidRegistry","inputs":[],"outputs":[{"name":"","type":"address","internalType":"contract ICCIDRegistry"}],"stateMutability":"view"},{"type":"function","name":"checkMint","inputs":[{"name":"to","type":"address","internalType":"address"},{"name":"amount","type":"uint256","internalType":"uint256"}],"outputs":[{"name":"","type":"bool","internalType":"bool"},{"name":"","type":"string","internalType":"string"}],"stateMutability":"view"},{"type":"function","name":"checkRedeem","inputs":[{"name":"from","type":"address","internalType":"address"},{"name":"amount","type":"uint256","internalType":"uint256"}],"outputs":[{"name":"","type":"bool","internalType":"bool"},{"name":"","type":"string","internalType":"string"}],"stateMutability":"view"},{"type":"function","name":"checkTransfer","inputs":[{"name":"from","type":"address","internalType":"address"},{"name":"to","type":"address","internalType":"address"},{"name":"amount","type":"uint256","internalType":"uint256"}],"outputs":[{"name":"","type":"bool","internalType":"bool"},{"name":"","type":"string","internalType":"string"}],"stateMutability":"view"},{"type":"function","name":"cooldownUntil","inputs":[{"name":"","type":"address","internalType":"address"}],"outputs":[{"name":"","type":"uint256","internalType":"uint256"}],"stateMutability":"view"},{"type":"function","name":"dailyVolume","inputs":[{"name":"","type":"address","internalType":"address"},{"name":"","type":"uint256","internalType":"uint256"}],"outputs":[{"name":"","type":"uint256","internalType":"uint256"}],"stateMutability":"view"},{"type":"function","name":"freezeWallet","inputs":[{"name":"wallet","type":"address","internalType":"address"}],"outputs":[],"stateMutability":"nonpayable"},{"type":"function","name":"frozenWallets","inputs":[{"name":"","type":"address","internalType":"address"}],"outputs":[{"name":"","type":"bool","internalType":"bool"}],"stateMutability":"view"},{"type":"function","name":"getRoleAdmin","inputs":[{"name":"role","type":"bytes32","internalType":"bytes32"}],"outputs":[{"name":"","type":"bytes32","internalType":"bytes32"}],"stateMutability":"view"},{"type":"function","name":"grantRole","inputs":[{"name":"role","type":"bytes32","internalType":"bytes32"},{"name":"account","type":"address","internalType":"address"}],"outputs":[],"stateMutability":"nonpayable"},{"type":"function","name":"hasRole","inputs":[{"name":"role","type":"bytes32","internalType":"bytes32"},{"name":"account","type":"address","internalType":"address"}],"outputs":[{"name":"","type":"bool","internalType":"bool"}],"stateMutability":"view"},{"type":"function","name":"paused","inputs":[],"outputs":[{"name":"","type":"bool","internalType":"bool"}],"stateMutability":"view"},{"type":"function","name":"recordMint","inputs":[{"name":"to","type":"address","internalType":"address"},{"name":"amount","type":"uint256","internalType":"uint256"}],"outputs":[],"stateMutability":"nonpayable"},{"type":"function","name":"recordTransfer","inputs":[{"name":"from","type":"address","internalType":"address"},{"name":"to","type":"address","internalType":"address"},{"name":"amount","type":"uint256","internalType":"uint256"}],"outputs":[],"stateMutability":"nonpayable"},{"type":"function","name":"removeFromSanctions","inputs":[{"name":"wallet","type":"address","internalType":"address"}],"outputs":[],"stateMutability":"nonpayable"},{"type":"function","name":"renounceRole","inputs":[{"name":"role","type":"bytes32","internalType":"bytes32"},{"name":"callerConfirmation","type":"address","internalType":"address"}],"outputs":[],"stateMutability":"nonpayable"},{"type":"function","name":"revokeRole","inputs":[{"name":"role","type":"bytes32","internalType":"bytes32"},{"name":"account","type":"address","internalType":"address"}],"outputs":[],"stateMutability":"nonpayable"},{"type":"function","name":"sanctionsList","inputs":[{"name":"","type":"address","internalType":"address"}],"outputs":[{"name":"","type":"bool","internalType":"bool"}],"stateMutability":"view"},{"type":"function","name":"setPaused","inputs":[{"name":"_paused","type":"bool","internalType":"bool"}],"outputs":[],"stateMutability":"nonpayable"},{"type":"function","name":"setUifThreshold","inputs":[{"name":"_threshold","type":"uint256","internalType":"uint256"}],"outputs":[],"stateMutability":"nonpayable"},{"type":"function","name":"supportsInterface","inputs":[{"name":"interfaceId","type":"bytes4","internalType":"bytes4"}],"outputs":[{"name":"","type":"bool","internalType":"bool"}],"stateMutability":"view"},{"type":"function","name":"txCountByHour","inputs":[{"name":"","type":"address","internalType":"address"},{"name":"","type":"uint256","internalType":"uint256"}],"outputs":[{"name":"","type":"uint256","internalType":"uint256"}],"stateMutability":"view"},{"type":"function","name":"uifThreshold","inputs":[],"outputs":[{"name":"","type":"uint256","internalType":"uint256"}],"stateMutability":"view"},{"type":"function","name":"unfreezeWallet","inputs":[{"name":"wallet","type":"address","internalType":"address"}],"outputs":[],"stateMutability":"nonpayable"},{"type":"event","name":"CooldownActivated","inputs":[{"name":"wallet","type":"address","indexed":true,"internalType":"address"},{"name":"until","type":"uint256","indexed":false,"internalType":"uint256"}],"anonymous":false},{"type":"event","name":"PausedStateChanged","inputs":[{"name":"paused","type":"bool","indexed":false,"internalType":"bool"}],"anonymous":false},{"type":"event","name":"RoleAdminChanged","inputs":[{"name":"role","type":"bytes32","indexed":true,"internalType":"bytes32"},{"name":"previousAdminRole","type":"bytes32","indexed":true,"internalType":"bytes32"},{"name":"newAdminRole","type":"bytes32","indexed":true,"internalType":"bytes32"}],"anonymous":false},{"type":"event","name":"RoleGranted","inputs":[{"name":"role","type":"bytes32","indexed":true,"internalType":"bytes32"},{"name":"account","type":"address","indexed":true,"internalType":"address"},{"name":"sender","type":"address","indexed":true,"internalType":"address"}],"anonymous":false},{"type":"event","name":"RoleRevoked","inputs":[{"name":"role","type":"bytes32","indexed":true,"internalType":"bytes32"},{"name":"account","type":"address","indexed":true,"internalType":"address"},{"name":"sender","type":"address","indexed":true,"internalType":"address"}],"anonymous":false},{"type":"event","name":"SanctionAdded","inputs":[{"name":"wallet","type":"address","indexed":true,"internalType":"address"}],"anonymous":false},{"type":"event","name":"SanctionRemoved","inputs":[{"name":"wallet","type":"address","indexed":true,"internalType":"address"}],"anonymous":false},{"type":"event","name":"UIFReport","inputs":[{"name":"from","type":"address","indexed":true,"internalType":"address"},{"name":"to","type":"address","indexed":true,"internalType":"address"},{"name":"amount","type":"uint256","indexed":false,"internalType":"uint256"},{"name":"timestamp","type":"uint256","indexed":false,"internalType":"uint256"}],"anonymous":false},{"type":"event","name":"UifThresholdUpdated","inputs":[{"name":"oldThreshold","type":"uint256","indexed":false,"internalType":"uint256"},{"name":"newThreshold","type":"uint256","indexed":false,"internalType":"uint256"}],"anonymous":false},{"type":"event","name":"WalletFrozenEvent","inputs":[{"name":"wallet","type":"address","indexed":true,"internalType":"address"}],"anonymous":false},{"type":"event","name":"WalletUnfrozen","inputs":[{"name":"wallet","type":"address","indexed":true,"internalType":"address"}],"anonymous":false},{"type":"error","name":"AccessControlBadConfirmation","inputs":[]},{"type":"error","name":"AccessControlUnauthorizedAccount","inputs":[{"name":"account","type":"address","internalType":"address"},{"name":"neededRole","type":"bytes32","internalType":"bytes32"}]},{"type":"error","name":"CooldownActive","inputs":[]},{"type":"error","name":"DailyLimitExceeded","inputs":[]},{"type":"error","name":"InvalidCCID","inputs":[]},{"type":"error","name":"Paused","inputs":[]},{"type":"error","name":"Sanctioned","inputs":[]},{"type":"error","name":"WalletFrozen","inputs":[]}],"bytecode":{"object":"0x608060405234801562000010575f80fd5b50604051620014683803806200146883398101604081905262000033916200013d565b6200003f5f8362000075565b50600180546001600160a01b0319166001600160a01b03929092169190911790555069074e3fadeb2a8090000060085562000173565b5f828152602081815260408083206001600160a01b038516845290915281205460ff1662000118575f838152602081815260408083206001600160a01b03861684529091529020805460ff19166001179055620000cf3390565b6001600160a01b0316826001600160a01b0316847f2f8788117e7eff1d82e926ec794901d17c78024a50270940304540a733656f0d60405160405180910390a45060016200011b565b505f5b92915050565b80516001600160a01b038116811462000138575f80fd5b919050565b5f80604083850312156200014f575f80fd5b6200015a8362000121565b91506200016a6020840162000121565b90509250929050565b6112e780620001815f395ff3fe608060405234801561000f575f80fd5b50600436106101bb575f3560e01c806374c95081116100f3578063c0ac860e11610093578063d547741f1161006e578063d547741f1461043b578063e2898bd51461044e578063e449570d14610461578063f5b541a61461046a575f80fd5b8063c0ac860e146103ea578063c94c9c62146103fd578063cc1dd94f14610428575f80fd5b806391d14854116100ce57806391d14854146103965780639f001169146103a9578063a0e87b58146103bc578063a217fddf146103e3575f80fd5b806374c950811461032f5780637d8fd617146103595780638606966e14610383575f80fd5b80632f2ff15d1161015e57806360f588b71161013957806360f588b7146102b75780636dbb8b9f146102ca5780636eeb8f1c146102eb578063718494031461030d575f80fd5b80632f2ff15d1461028457806336568abe146102975780635c975abb146102aa575f80fd5b806316c38b3c1161019957806316c38b3c1461020f57806319c2656514610222578063248a9ca31461023557806325d40e3c14610265575f80fd5b806301e3a903146101bf57806301ffc9a7146101d457806307c07cda146101fc575b5f80fd5b6101d26101cd3660046110bf565b610491565b005b6101e76101e23660046110f8565b610636565b60405190151581526020015b60405180910390f35b6101d261020a366004611126565b61066c565b6101d261021d36600461115b565b610735565b6101d2610230366004611176565b610787565b61025761024336600461118f565b5f9081526020819052604090206001015490565b6040519081526020016101f3565b610257610273366004611176565b60066020525f908152604090205481565b6101d26102923660046111a6565b6107dd565b6101d26102a53660046111a6565b610801565b6007546101e79060ff1681565b6101d26102c5366004611176565b610839565b6102dd6102d8366004611126565b61088c565b6040516101f39291906111d0565b6101e76102f9366004611176565b60056020525f908152604090205460ff1681565b6101e761031b366004611176565b60046020525f908152604090205460ff1681565b61025761033d366004611126565b600260209081525f928352604080842090915290825290205481565b610257610367366004611126565b600360209081525f928352604080842090915290825290205481565b6101d261039136600461118f565b610a3c565b6101e76103a43660046111a6565b610a8c565b6101d26103b7366004611176565b610ab4565b6102577f3d8c4114c0c2861474cea55ac91f4b1551c60768c886a96a3d81a3048267e87981565b6102575f81565b6101d26103f8366004611176565b610b0a565b600154610410906001600160a01b031681565b6040516001600160a01b0390911681526020016101f3565b6102dd6104363660046110bf565b610b5d565b6101d26104493660046111a6565b610dde565b6102dd61045c366004611126565b610e02565b61025760085481565b6102577f97667070c54ef182b0f5858b034beac1b6f3089aa2d3188bb1e8929f4fa9b92981565b7f97667070c54ef182b0f5858b034beac1b6f3089aa2d3188bb1e8929f4fa9b9296104bb81610e64565b5f6104c96201518042611226565b6001600160a01b0386165f908152600260209081526040808320848452909152812080549293508592909190610500908490611245565b909155505f9050610513610e1042611226565b6001600160a01b0387165f9081526003602090815260408083208484529091528120805492935060019290919061054b908490611245565b90915550506001600160a01b0386165f9081526003602090815260408083208484529091529020546005116105dc57610586611c2042611245565b6001600160a01b0387165f81815260066020526040908190208390555190917fe502a84e0e5df5513d6ba824e4e632f2320a6c4be9ee83b18ff6cf5dab03d29c916105d391815260200190565b60405180910390a25b600854841061062e57604080518581524260208201526001600160a01b0380881692908916917f4e56584005c1021fafbd3d83f70779ef293e9406600b037eef2c420b63874952910160405180910390a35b505050505050565b5f6001600160e01b03198216637965db0b60e01b148061066657506301ffc9a760e01b6001600160e01b03198316145b92915050565b7f97667070c54ef182b0f5858b034beac1b6f3089aa2d3188bb1e8929f4fa9b92961069681610e64565b5f6106a46201518042611226565b6001600160a01b0385165f9081526002602090815260408083208484529091528120805492935085929091906106db908490611245565b9091555050600854831061072f57604080518481524260208201526001600160a01b038616915f917f4e56584005c1021fafbd3d83f70779ef293e9406600b037eef2c420b63874952910160405180910390a35b50505050565b5f61073f81610e64565b6007805460ff19168315159081179091556040519081527f9e3a5e37224532dea67b89face185703738a228a6e8a23dee546960180d3be649060200160405180910390a15050565b5f61079181610e64565b6001600160a01b0382165f81815260056020526040808220805460ff19166001179055517ff54b76ab66e3113027cf9aafa8696ea965c990d6441fdfbcc57833d243733c429190a25050565b5f828152602081905260409020600101546107f781610e64565b61072f8383610e71565b6001600160a01b038116331461082a5760405163334bd91960e11b815260040160405180910390fd5b6108348282610f00565b505050565b5f61084381610e64565b6001600160a01b0382165f81815260046020526040808220805460ff19169055517fd247131fabb99dc3ba793524f53f05a77eeef38f12b30119655ee340810b12109190a25050565b6007545f9060609060ff16156108b5576040516313d0ff5960e31b815260040160405180910390fd5b6001600160a01b0384165f9081526005602052604090205460ff16156108ee576040516320cf996960e11b815260040160405180910390fd5b6001600160a01b0384165f9081526004602052604090205460ff161561092757604051635f8d235160e01b815260040160405180910390fd5b600154604051638b1b925f60e01b81526001600160a01b03868116600483015290911690638b1b925f90602401602060405180830381865afa15801561096f573d5f803e3d5ffd5b505050506040513d601f19601f820116820180604052508101906109939190611264565b6109b057604051635c6a31e160e01b815260040160405180910390fd5b5f6109be6201518042611226565b6001600160a01b0386165f908152600260209081526040808320848452909152812054919250906109f0908690611245565b90505f6109fc87610f69565b905080821115610a1f57604051630652f4c560e21b815260040160405180910390fd5b505060408051602081019091525f81526001969095509350505050565b5f610a4681610e64565b600880549083905560408051828152602081018590527faf8dc3c1ec97ce1859fb8d3c0f2e731cddcee719e48461a8a83136c040e70c05910160405180910390a1505050565b5f918252602082815260408084206001600160a01b0393909316845291905290205460ff1690565b5f610abe81610e64565b6001600160a01b0382165f81815260046020526040808220805460ff19166001179055517f5c003a5e6193d3a4cda6e143db39274b66b2631ce14e777df028458b256a1e269190a25050565b5f610b1481610e64565b6001600160a01b0382165f81815260056020526040808220805460ff19169055517f97faab8fde81914a8f7f87da64f6bc88bddc68b474ddfc51d2b834ccd9c2da1c9190a25050565b6007545f9060609060ff1615610b86576040516313d0ff5960e31b815260040160405180910390fd5b6001600160a01b0385165f9081526005602052604090205460ff1680610bc357506001600160a01b0384165f9081526005602052604090205460ff165b15610be1576040516320cf996960e11b815260040160405180910390fd5b6001600160a01b0385165f9081526004602052604090205460ff1615610c1a57604051635f8d235160e01b815260040160405180910390fd5b6001600160a01b0385165f90815260066020526040902054421015610c525760405163aa9a98df60e01b815260040160405180910390fd5b600154604051638b1b925f60e01b81526001600160a01b03878116600483015290911690638b1b925f90602401602060405180830381865afa158015610c9a573d5f803e3d5ffd5b505050506040513d601f19601f82011682018060405250810190610cbe9190611264565b1580610d335750600154604051638b1b925f60e01b81526001600160a01b03868116600483015290911690638b1b925f90602401602060405180830381865afa158015610d0d573d5f803e3d5ffd5b505050506040513d601f19601f82011682018060405250810190610d319190611264565b155b15610d5157604051635c6a31e160e01b815260040160405180910390fd5b5f610d5f6201518042611226565b6001600160a01b0387165f90815260026020908152604080832084845290915281205491925090610d91908690611245565b90505f610d9d88610f69565b905080821115610dc057604051630652f4c560e21b815260040160405180910390fd5b505060408051602081019091525f8152600197909650945050505050565b5f82815260208190526040902060010154610df881610e64565b61072f8383610f00565b6007545f9060609060ff1615610e2b576040516313d0ff5960e31b815260040160405180910390fd5b6001600160a01b0384165f9081526005602052604090205460ff1615610927576040516320cf996960e11b815260040160405180910390fd5b610e6e8133611063565b50565b5f610e7c8383610a8c565b610ef9575f838152602081815260408083206001600160a01b03861684529091529020805460ff19166001179055610eb13390565b6001600160a01b0316826001600160a01b0316847f2f8788117e7eff1d82e926ec794901d17c78024a50270940304540a733656f0d60405160405180910390a4506001610666565b505f610666565b5f610f0b8383610a8c565b15610ef9575f838152602081815260408083206001600160a01b0386168085529252808320805460ff1916905551339286917ff6391f5c32d9c69d2a47ea670b442974b53935d1edc7fd64eb21e047a839171b9190a4506001610666565b600154604051635a2d572960e11b81526001600160a01b0383811660048301525f92839291169063b45aae5290602401602060405180830381865afa158015610fb4573d5f803e3d5ffd5b505050506040513d601f19601f82011682018060405250810190610fd8919061127f565b90506001816003811115610fee57610fee61129d565b03611005575069010f0cf064dd5920000092915050565b60028160038111156110195761101961129d565b03611030575069073324c914479140000092915050565b60038160038111156110445761104461129d565b0361105b57506969e10de76676d080000092915050565b505f92915050565b61106d8282610a8c565b6110a05760405163e2517d3f60e01b81526001600160a01b03821660048201526024810183905260440160405180910390fd5b5050565b80356001600160a01b03811681146110ba575f80fd5b919050565b5f805f606084860312156110d1575f80fd5b6110da846110a4565b92506110e8602085016110a4565b9150604084013590509250925092565b5f60208284031215611108575f80fd5b81356001600160e01b03198116811461111f575f80fd5b9392505050565b5f8060408385031215611137575f80fd5b611140836110a4565b946020939093013593505050565b8015158114610e6e575f80fd5b5f6020828403121561116b575f80fd5b813561111f8161114e565b5f60208284031215611186575f80fd5b61111f826110a4565b5f6020828403121561119f575f80fd5b5035919050565b5f80604083850312156111b7575f80fd5b823591506111c7602084016110a4565b90509250929050565b82151581525f60206040602084015283518060408501525f5b81811015611205578581018301518582016060015282016111e9565b505f606082860101526060601f19601f830116850101925050509392505050565b5f8261124057634e487b7160e01b5f52601260045260245ffd5b500490565b8082018082111561066657634e487b7160e01b5f52601160045260245ffd5b5f60208284031215611274575f80fd5b815161111f8161114e565b5f6020828403121561128f575f80fd5b81516004811061111f575f80fd5b634e487b7160e01b5f52602160045260245ffdfea26469706673582212202e65da0f70d93dec7039ed8abd5b0aef9b7cd9200884a565bf73bdc30f04a23264736f6c63430008180033","linkReferences":{}},"methodIdentifiers":{"DEFAULT_ADMIN_ROLE()":"a217fddf","OPERATOR_ROLE()":"f5b541a6","POLICY_ENFORCER_ROLE()":"a0e87b58","addToSanctions(address)":"19c26565","ccidRegistry()":"c94c9c62","checkMint(address,uint256)":"e2898bd5","checkRedeem(address,uint256)":"6dbb8b9f","checkTransfer(address,address,uint256)":"cc1dd94f","cooldownUntil(address)":"25d40e3c","dailyVolume(address,uint256)":"74c95081","freezeWallet(address)":"9f001169","frozenWallets(address)":"71849403","getRoleAdmin(bytes32)":"248a9ca3","grantRole(bytes32,address)":"2f2ff15d","hasRole(bytes32,address)":"91d14854","paused()":"5c975abb","recordMint(address,uint256)":"07c07cda","recordTransfer(address,address,uint256)":"01e3a903","removeFromSanctions(address)":"c0ac860e","renounceRole(bytes32,address)":"36568abe","revokeRole(bytes32,address)":"d547741f","sanctionsList(address)":"6eeb8f1c","setPaused(bool)":"16c38b3c","setUifThreshold(uint256)":"8606966e","supportsInterface(bytes4)":"01ffc9a7","txCountByHour(address,uint256)":"7d8fd617","uifThreshold()":"e449570d","unfreezeWallet(address)":"60f588b7"},"id":37}