{"abi":[{"type":"constructor","inputs":[{"name":"admin","type":"address","internalType":"address"}],"stateMutability":"nonpayable"},{"type":"function","name":"DEFAULT_ADMIN_ROLE","inputs":[],"outputs":[{"name":"","type":"bytes32","internalType":"bytes32"}],"stateMutability":"view"},{"type":"function","name":"MINTER_CONTRACT_ROLE","inputs":[],"outputs":[{"name":"","type":"bytes32","internalType":"bytes32"}],"stateMutability":"view"},{"type":"function","name":"ORACLE_ROLE","inputs":[],"outputs":[{"name":"","type":"bytes32","internalType":"bytes32"}],"stateMutability":"view"},{"type":"function","name":"confirmDeposit","inputs":[{"name":"txId","type":"bytes32","internalType":"bytes32"},{"name":"user","type":"address","internalType":"address"},{"name":"amount","type":"uint256","internalType":"uint256"}],"outputs":[],"stateMutability":"nonpayable"},{"type":"function","name":"getDeposit","inputs":[{"name":"txId","type":"bytes32","internalType":"bytes32"}],"outputs":[{"name":"","type":"tuple","internalType":"struct IFiatDepositOracle.DepositConfirmation","components":[{"name":"txId","type":"bytes32","internalType":"bytes32"},{"name":"user","type":"address","internalType":"address"},{"name":"amount","type":"uint256","internalType":"uint256"},{"name":"confirmedAt","type":"uint256","internalType":"uint256"},{"name":"used","type":"bool","internalType":"bool"}]}],"stateMutability":"view"},{"type":"function","name":"getRoleAdmin","inputs":[{"name":"role","type":"bytes32","internalType":"bytes32"}],"outputs":[{"name":"","type":"bytes32","internalType":"bytes32"}],"stateMutability":"view"},{"type":"function","name":"getTotalReserves","inputs":[],"outputs":[{"name":"","type":"uint256","internalType":"uint256"}],"stateMutability":"view"},{"type":"function","name":"grantRole","inputs":[{"name":"role","type":"bytes32","internalType":"bytes32"},{"name":"account","type":"address","internalType":"address"}],"outputs":[],"stateMutability":"nonpayable"},{"type":"function","name":"hasRole","inputs":[{"name":"role","type":"bytes32","internalType":"bytes32"},{"name":"account","type":"address","internalType":"address"}],"outputs":[{"name":"","type":"bool","internalType":"bool"}],"stateMutability":"view"},{"type":"function","name":"isReservesStale","inputs":[],"outputs":[{"name":"","type":"bool","internalType":"bool"}],"stateMutability":"view"},{"type":"function","name":"lastReservesUpdate","inputs":[],"outputs":[{"name":"","type":"uint256","internalType":"uint256"}],"stateMutability":"view"},{"type":"function","name":"markUsed","inputs":[{"name":"txId","type":"bytes32","internalType":"bytes32"}],"outputs":[],"stateMutability":"nonpayable"},{"type":"function","name":"renounceRole","inputs":[{"name":"role","type":"bytes32","internalType":"bytes32"},{"name":"callerConfirmation","type":"address","internalType":"address"}],"outputs":[],"stateMutability":"nonpayable"},{"type":"function","name":"revokeRole","inputs":[{"name":"role","type":"bytes32","internalType":"bytes32"},{"name":"account","type":"address","internalType":"address"}],"outputs":[],"stateMutability":"nonpayable"},{"type":"function","name":"supportsInterface","inputs":[{"name":"interfaceId","type":"bytes4","internalType":"bytes4"}],"outputs":[{"name":"","type":"bool","internalType":"bool"}],"stateMutability":"view"},{"type":"function","name":"totalReserves","inputs":[],"outputs":[{"name":"","type":"uint256","internalType":"uint256"}],"stateMutability":"view"},{"type":"function","name":"updateReserves","inputs":[{"name":"_totalReserves","type":"uint256","internalType":"uint256"}],"outputs":[],"stateMutability":"nonpayable"},{"type":"function","name":"usedTxIds","inputs":[{"name":"","type":"bytes32","internalType":"bytes32"}],"outputs":[{"name":"","type":"bool","internalType":"bool"}],"stateMutability":"view"},{"type":"event","name":"DepositConfirmed","inputs":[{"name":"txId","type":"bytes32","indexed":true,"internalType":"bytes32"},{"name":"user","type":"address","indexed":true,"internalType":"address"},{"name":"amount","type":"uint256","indexed":false,"internalType":"uint256"}],"anonymous":false},{"type":"event","name":"ReservesUpdated","inputs":[{"name":"totalReserves","type":"uint256","indexed":false,"internalType":"uint256"},{"name":"timestamp","type":"uint256","indexed":false,"internalType":"uint256"}],"anonymous":false},{"type":"event","name":"RoleAdminChanged","inputs":[{"name":"role","type":"bytes32","indexed":true,"internalType":"bytes32"},{"name":"previousAdminRole","type":"bytes32","indexed":true,"internalType":"bytes32"},{"name":"newAdminRole","type":"bytes32","indexed":true,"internalType":"bytes32"}],"anonymous":false},{"type":"event","name":"RoleGranted","inputs":[{"name":"role","type":"bytes32","indexed":true,"internalType":"bytes32"},{"name":"account","type":"address","indexed":true,"internalType":"address"},{"name":"sender","type":"address","indexed":true,"internalType":"address"}],"anonymous":false},{"type":"event","name":"RoleRevoked","inputs":[{"name":"role","type":"bytes32","indexed":true,"internalType":"bytes32"},{"name":"account","type":"address","indexed":true,"internalType":"address"},{"name":"sender","type":"address","indexed":true,"internalType":"address"}],"anonymous":false},{"type":"error","name":"AccessControlBadConfirmation","inputs":[]},{"type":"error","name":"AccessControlUnauthorizedAccount","inputs":[{"name":"account","type":"address","internalType":"address"},{"name":"neededRole","type":"bytes32","internalType":"bytes32"}]},{"type":"error","name":"DepositExpired","inputs":[]},{"type":"error","name":"DepositNotFound","inputs":[]},{"type":"error","name":"InvalidAmount","inputs":[]},{"type":"error","name":"TxAlreadyUsed","inputs":[]}],"bytecode":{"object":"0x608060405234801561000f575f80fd5b50604051610a2f380380610a2f83398101604081905261002e916100e8565b6100385f8261003f565b5050610115565b5f828152602081815260408083206001600160a01b038516845290915281205460ff166100df575f838152602081815260408083206001600160a01b03861684529091529020805460ff191660011790556100973390565b6001600160a01b0316826001600160a01b0316847f2f8788117e7eff1d82e926ec794901d17c78024a50270940304540a733656f0d60405160405180910390a45060016100e2565b505f5b92915050565b5f602082840312156100f8575f80fd5b81516001600160a01b038116811461010e575f80fd5b9392505050565b61090d806101225f395ff3fe608060405234801561000f575f80fd5b5060043610610111575f3560e01c806336568abe1161009e57806391d148541161006e57806391d148541461030f57806391df0ff814610322578063a217fddf14610335578063d547741f1461033c578063e21e9e0e1461034f575f80fd5b806336568abe146101f75780637a86983f1461020a5780638d374f84146102df5780638f840ddd14610306575f80fd5b80631fe8a3ab116100e45780631fe8a3ab1461019d578063242693d3146101a5578063248a9ca3146101ad5780632f2ff15d146101cf57806331492392146101e4575f80fd5b806301ffc9a71461011557806307e2cea51461013d5780630c76623c1461017257806311113ee41461017b575b5f80fd5b6101286101233660046107fc565b610362565b60405190151581526020015b60405180910390f35b6101647f68e79a7bf1e0bc45d0a330c573bc367f9cf464fd326078812f301165fbda4ef181565b604051908152602001610134565b61016460045481565b61012861018936600461082a565b60026020525f908152604090205460ff1681565b610128610398565b600354610164565b6101646101bb36600461082a565b5f9081526020819052604090206001015490565b6101e26101dd36600461085c565b6103b1565b005b6101e26101f236600461082a565b6103db565b6101e261020536600461085c565b61044e565b61029761021836600461082a565b6040805160a080820183525f8083526020808401829052838501829052606080850183905260809485018390529582526001808252918590208551938401865280548452918201546001600160a01b03169083015260028101549382019390935260038301549381019390935260049091015460ff1615159082015290565b6040516101349190815181526020808301516001600160a01b031690820152604080830151908201526060808301519082015260809182015115159181019190915260a00190565b6101647fb528e0d429bc0f5cb2a41f0b000cc836dd1fc75f8a16843778cb13a51ff95a3681565b61016460035481565b61012861031d36600461085c565b610486565b6101e2610330366004610886565b6104ae565b6101645f81565b6101e261034a36600461085c565b6105e4565b6101e261035d36600461082a565b610608565b5f6001600160e01b03198216637965db0b60e01b148061039257506301ffc9a760e01b6001600160e01b03198316145b92915050565b5f620151806004546103aa91906108b8565b4211905090565b5f828152602081905260409020600101546103cb816106b6565b6103d583836106c3565b50505050565b7f68e79a7bf1e0bc45d0a330c573bc367f9cf464fd326078812f301165fbda4ef1610405816106b6565b60038290554260048190556040805184815260208101929092527f5141ecc84a35c12ca2bf76bb33d393bd2fc22f906da0743534beef4ae63c6c8e910160405180910390a15050565b6001600160a01b03811633146104775760405163334bd91960e11b815260040160405180910390fd5b6104818282610752565b505050565b5f918252602082815260408084206001600160a01b0393909316845291905290205460ff1690565b7f68e79a7bf1e0bc45d0a330c573bc367f9cf464fd326078812f301165fbda4ef16104d8816106b6565b815f036104f85760405163162908e360e11b815260040160405180910390fd5b5f8481526002602052604090205460ff161561052757604051637a48537560e11b815260040160405180910390fd5b6040805160a0810182528581526001600160a01b03858116602080840182815284860188815242606087019081525f608088018181528d82526001808752918a902098518955935190880180546001600160a01b03191691909716179095555160028601559251600385015591516004909301805460ff1916931515939093179092559151848152909186917f9d39974c480d889b2e46ed1adc6e673ef0ea9f11554437438b05a17cecbde95e910160405180910390a350505050565b5f828152602081905260409020600101546105fe816106b6565b6103d58383610752565b7fb528e0d429bc0f5cb2a41f0b000cc836dd1fc75f8a16843778cb13a51ff95a36610632816106b6565b5f82815260016020526040812060038101549091036106645760405163411321ed60e01b815260040160405180910390fd5b600481015460ff161561068a57604051637a48537560e11b815260040160405180910390fd5b6004018054600160ff1991821681179092555f9384526002602052604090932080549093161790915550565b6106c081336107bb565b50565b5f6106ce8383610486565b61074b575f838152602081815260408083206001600160a01b03861684529091529020805460ff191660011790556107033390565b6001600160a01b0316826001600160a01b0316847f2f8788117e7eff1d82e926ec794901d17c78024a50270940304540a733656f0d60405160405180910390a4506001610392565b505f610392565b5f61075d8383610486565b1561074b575f838152602081815260408083206001600160a01b0386168085529252808320805460ff1916905551339286917ff6391f5c32d9c69d2a47ea670b442974b53935d1edc7fd64eb21e047a839171b9190a4506001610392565b6107c58282610486565b6107f85760405163e2517d3f60e01b81526001600160a01b03821660048201526024810183905260440160405180910390fd5b5050565b5f6020828403121561080c575f80fd5b81356001600160e01b031981168114610823575f80fd5b9392505050565b5f6020828403121561083a575f80fd5b5035919050565b80356001600160a01b0381168114610857575f80fd5b919050565b5f806040838503121561086d575f80fd5b8235915061087d60208401610841565b90509250929050565b5f805f60608486031215610898575f80fd5b833592506108a860208501610841565b9150604084013590509250925092565b8082018082111561039257634e487b7160e01b5f52601160045260245ffdfea26469706673582212200364f143bafcfd14c2040229c7ce5e6c7f335aa5bb2968a2c992e324ecd0092d64736f6c63430008180033","linkReferences":{}},"methodIdentifiers":{"DEFAULT_ADMIN_ROLE()":"a217fddf","MINTER_CONTRACT_ROLE()":"8d374f84","ORACLE_ROLE()":"07e2cea5","confirmDeposit(bytes32,address,uint256)":"91df0ff8","getDeposit(bytes32)":"7a86983f","getRoleAdmin(bytes32)":"248a9ca3","getTotalReserves()":"242693d3","grantRole(bytes32,address)":"2f2ff15d","hasRole(bytes32,address)":"91d14854","isReservesStale()":"1fe8a3ab","lastReservesUpdate()":"0c76623c","markUsed(bytes32)":"e21e9e0e","renounceRole(bytes32,address)":"36568abe","revokeRole(bytes32,address)":"d547741f","supportsInterface(bytes4)":"01ffc9a7","totalReserves()":"8f840ddd","updateReserves(uint256)":"31492392","usedTxIds(bytes32)":"11113ee4"},"id":35}