{"abi":[{"type":"constructor","inputs":[{"name":"admin","type":"address","internalType":"address"}],"stateMutability":"nonpayable"},{"type":"function","name":"DEFAULT_ADMIN_ROLE","inputs":[],"outputs":[{"name":"","type":"bytes32","internalType":"bytes32"}],"stateMutability":"view"},{"type":"function","name":"IDENTITY_DURATION","inputs":[],"outputs":[{"name":"","type":"uint256","internalType":"uint256"}],"stateMutability":"view"},{"type":"function","name":"REGISTRAR_ROLE","inputs":[],"outputs":[{"name":"","type":"bytes32","internalType":"bytes32"}],"stateMutability":"view"},{"type":"function","name":"getIdentity","inputs":[{"name":"wallet","type":"address","internalType":"address"}],"outputs":[{"name":"","type":"tuple","internalType":"struct ICCIDRegistry.Identity","components":[{"name":"wallet","type":"address","internalType":"address"},{"name":"tier","type":"uint8","internalType":"enum ICCIDRegistry.KYCTier"},{"name":"expiresAt","type":"uint256","internalType":"uint256"},{"name":"active","type":"bool","internalType":"bool"},{"name":"credentialHash","type":"bytes32","internalType":"bytes32"}]}],"stateMutability":"view"},{"type":"function","name":"getRoleAdmin","inputs":[{"name":"role","type":"bytes32","internalType":"bytes32"}],"outputs":[{"name":"","type":"bytes32","internalType":"bytes32"}],"stateMutability":"view"},{"type":"function","name":"getTier","inputs":[{"name":"wallet","type":"address","internalType":"address"}],"outputs":[{"name":"","type":"uint8","internalType":"enum ICCIDRegistry.KYCTier"}],"stateMutability":"view"},{"type":"function","name":"grantRole","inputs":[{"name":"role","type":"bytes32","internalType":"bytes32"},{"name":"account","type":"address","internalType":"address"}],"outputs":[],"stateMutability":"nonpayable"},{"type":"function","name":"hasRole","inputs":[{"name":"role","type":"bytes32","internalType":"bytes32"},{"name":"account","type":"address","internalType":"address"}],"outputs":[{"name":"","type":"bool","internalType":"bool"}],"stateMutability":"view"},{"type":"function","name":"isValid","inputs":[{"name":"wallet","type":"address","internalType":"address"}],"outputs":[{"name":"","type":"bool","internalType":"bool"}],"stateMutability":"view"},{"type":"function","name":"registerIdentity","inputs":[{"name":"wallet","type":"address","internalType":"address"},{"name":"tier","type":"uint8","internalType":"enum ICCIDRegistry.KYCTier"},{"name":"credentialHash","type":"bytes32","internalType":"bytes32"}],"outputs":[],"stateMutability":"nonpayable"},{"type":"function","name":"renounceRole","inputs":[{"name":"role","type":"bytes32","internalType":"bytes32"},{"name":"callerConfirmation","type":"address","internalType":"address"}],"outputs":[],"stateMutability":"nonpayable"},{"type":"function","name":"revokeIdentity","inputs":[{"name":"wallet","type":"address","internalType":"address"}],"outputs":[],"stateMutability":"nonpayable"},{"type":"function","name":"revokeRole","inputs":[{"name":"role","type":"bytes32","internalType":"bytes32"},{"name":"account","type":"address","internalType":"address"}],"outputs":[],"stateMutability":"nonpayable"},{"type":"function","name":"supportsInterface","inputs":[{"name":"interfaceId","type":"bytes4","internalType":"bytes4"}],"outputs":[{"name":"","type":"bool","internalType":"bool"}],"stateMutability":"view"},{"type":"event","name":"IdentityRegistered","inputs":[{"name":"wallet","type":"address","indexed":true,"internalType":"address"},{"name":"tier","type":"uint8","indexed":false,"internalType":"enum ICCIDRegistry.KYCTier"},{"name":"expiresAt","type":"uint256","indexed":false,"internalType":"uint256"}],"anonymous":false},{"type":"event","name":"IdentityRevoked","inputs":[{"name":"wallet","type":"address","indexed":true,"internalType":"address"}],"anonymous":false},{"type":"event","name":"RoleAdminChanged","inputs":[{"name":"role","type":"bytes32","indexed":true,"internalType":"bytes32"},{"name":"previousAdminRole","type":"bytes32","indexed":true,"internalType":"bytes32"},{"name":"newAdminRole","type":"bytes32","indexed":true,"internalType":"bytes32"}],"anonymous":false},{"type":"event","name":"RoleGranted","inputs":[{"name":"role","type":"bytes32","indexed":true,"internalType":"bytes32"},{"name":"account","type":"address","indexed":true,"internalType":"address"},{"name":"sender","type":"address","indexed":true,"internalType":"address"}],"anonymous":false},{"type":"event","name":"RoleRevoked","inputs":[{"name":"role","type":"bytes32","indexed":true,"internalType":"bytes32"},{"name":"account","type":"address","indexed":true,"internalType":"address"},{"name":"sender","type":"address","indexed":true,"internalType":"address"}],"anonymous":false},{"type":"error","name":"AccessControlBadConfirmation","inputs":[]},{"type":"error","name":"AccessControlUnauthorizedAccount","inputs":[{"name":"account","type":"address","internalType":"address"},{"name":"neededRole","type":"bytes32","internalType":"bytes32"}]},{"type":"error","name":"CredentialAlreadyUsed","inputs":[]},{"type":"error","name":"IdentityAlreadyExists","inputs":[]},{"type":"error","name":"IdentityExpired","inputs":[]},{"type":"error","name":"IdentityNotFound","inputs":[]},{"type":"error","name":"InvalidTier","inputs":[]},{"type":"error","name":"InvalidWallet","inputs":[]}],"bytecode":{"object":"0x608060405234801561000f575f80fd5b50604051610b91380380610b9183398101604081905261002e916100e8565b6100385f8261003f565b5050610115565b5f828152602081815260408083206001600160a01b038516845290915281205460ff166100df575f838152602081815260408083206001600160a01b03861684529091529020805460ff191660011790556100973390565b6001600160a01b0316826001600160a01b0316847f2f8788117e7eff1d82e926ec794901d17c78024a50270940304540a733656f0d60405160405180910390a45060016100e2565b505f5b92915050565b5f602082840312156100f8575f80fd5b81516001600160a01b038116811461010e575f80fd5b9392505050565b610a6f806101225f395ff3fe608060405234801561000f575f80fd5b50600436106100e5575f3560e01c80638b1b925f11610088578063a386e17011610063578063a386e170146101dc578063b45aae52146101e7578063d547741f14610207578063f68e95531461021a575f80fd5b80638b1b925f146101af57806391d14854146101c2578063a217fddf146101d5575f80fd5b80632f2ff15d116100c35780632f2ff15d146101565780632fea7b811461016957806336568abe14610189578063862a64081461019c575f80fd5b806301ffc9a7146100e95780630ebddd1714610111578063248a9ca314610126575b5f80fd5b6100fc6100f7366004610897565b610241565b60405190151581526020015b60405180910390f35b61012461011f3660046108d9565b610277565b005b6101486101343660046108f2565b5f9081526020819052604090206001015490565b604051908152602001610108565b610124610164366004610909565b610301565b61017c6101773660046108d9565b61032b565b6040516101089190610967565b610124610197366004610909565b6103da565b6101246101aa3660046109b2565b610412565b6100fc6101bd3660046108d9565b610683565b6100fc6101d0366004610909565b6106b8565b6101485f81565b6101486301e1338081565b6101fa6101f53660046108d9565b6106e0565b60405161010891906109f1565b610124610215366004610909565b61072d565b6101487fedcc084d3dcd65a1f7f23c65c46722faca6953d28e43150a467cf43e5c30923881565b5f6001600160e01b03198216637965db0b60e01b148061027157506301ffc9a760e01b6001600160e01b03198316145b92915050565b5f61028181610751565b6001600160a01b0382165f908152600160205260409020600281015460ff166102bd576040516369e0942b60e11b815260040160405180910390fd5b60028101805460ff191690556040516001600160a01b038416907fccf550e579fbeb7d56da9a0175f8d4526535cab139e73b592516f1916d4075dd905f90a2505050565b5f8281526020819052604090206001015461031b81610751565b610325838361075e565b50505050565b6040805160a080820183525f808352602080840182905283850182905260608401829052608084018290526001600160a01b038681168352600182529185902085519384019095528454918216835292939192830190600160a01b900460ff16600381111561039c5761039c610933565b60038111156103ad576103ad610933565b815260018201546020820152600282015460ff161515604082015260039091015460609091015292915050565b6001600160a01b03811633146104035760405163334bd91960e11b815260040160405180910390fd5b61040d82826107ed565b505050565b7fedcc084d3dcd65a1f7f23c65c46722faca6953d28e43150a467cf43e5c30923861043c81610751565b6001600160a01b038416610463576040516323455ba160e01b815260040160405180910390fd5b5f83600381111561047657610476610933565b036104945760405163e142361760e01b815260040160405180910390fd5b6001600160a01b0384165f908152600160205260409020600281015460ff16156104d1576040516335a081ab60e11b815260040160405180910390fd5b5f838152600260205260409020546001600160a01b0316801580159061051157506001600160a01b0381165f9081526001602052604090206002015460ff165b1561052f57604051639f6daab560e01b815260040160405180910390fd5b5f61053e6301e13380426109ff565b90506040518060a00160405280886001600160a01b0316815260200187600381111561056c5761056c610933565b815260208082018490526001604080840182905260609093018990526001600160a01b03808c165f9081529183529290208351815493166001600160a01b0319841681178255918401519092909183916001600160a81b03191617600160a01b8360038111156105de576105de610933565b0217905550604082810151600183015560608301516002808401805460ff1916921515929092179091556080909301516003909201919091555f8781526020929092529081902080546001600160a01b0319166001600160a01b038a1690811790915590517f87bcd68ee69c842244ab35b2a389fd60d604255ad2bb8704e218fd6adbfbd637906106729089908590610a1e565b60405180910390a250505050505050565b6001600160a01b0381165f908152600160205260408120600281015460ff1680156106b15750428160010154115b9392505050565b5f918252602082815260408084206001600160a01b0393909316845291905290205460ff1690565b6001600160a01b0381165f908152600160205260408120600281015460ff16158061070f575042816001015411155b1561071c57505f92915050565b54600160a01b900460ff1692915050565b5f8281526020819052604090206001015461074781610751565b61032583836107ed565b61075b8133610856565b50565b5f61076983836106b8565b6107e6575f838152602081815260408083206001600160a01b03861684529091529020805460ff1916600117905561079e3390565b6001600160a01b0316826001600160a01b0316847f2f8788117e7eff1d82e926ec794901d17c78024a50270940304540a733656f0d60405160405180910390a4506001610271565b505f610271565b5f6107f883836106b8565b156107e6575f838152602081815260408083206001600160a01b0386168085529252808320805460ff1916905551339286917ff6391f5c32d9c69d2a47ea670b442974b53935d1edc7fd64eb21e047a839171b9190a4506001610271565b61086082826106b8565b6108935760405163e2517d3f60e01b81526001600160a01b03821660048201526024810183905260440160405180910390fd5b5050565b5f602082840312156108a7575f80fd5b81356001600160e01b0319811681146106b1575f80fd5b80356001600160a01b03811681146108d4575f80fd5b919050565b5f602082840312156108e9575f80fd5b6106b1826108be565b5f60208284031215610902575f80fd5b5035919050565b5f806040838503121561091a575f80fd5b8235915061092a602084016108be565b90509250929050565b634e487b7160e01b5f52602160045260245ffd5b6004811061096357634e487b7160e01b5f52602160045260245ffd5b9052565b81516001600160a01b0316815260208083015160a083019161098b90840182610947565b50604083015160408301526060830151151560608301526080830151608083015292915050565b5f805f606084860312156109c4575f80fd5b6109cd846108be565b92506020840135600481106109e0575f80fd5b929592945050506040919091013590565b602081016102718284610947565b8082018082111561027157634e487b7160e01b5f52601160045260245ffd5b60408101610a2c8285610947565b826020830152939250505056fea26469706673582212201beb1b68d6de63fefc385b5c88eef2e96929beebcf8e99a97284a50f6d88268c64736f6c63430008180033","linkReferences":{}},"methodIdentifiers":{"DEFAULT_ADMIN_ROLE()":"a217fddf","IDENTITY_DURATION()":"a386e170","REGISTRAR_ROLE()":"f68e9553","getIdentity(address)":"2fea7b81","getRoleAdmin(bytes32)":"248a9ca3","getTier(address)":"b45aae52","grantRole(bytes32,address)":"2f2ff15d","hasRole(bytes32,address)":"91d14854","isValid(address)":"8b1b925f","registerIdentity(address,uint8,bytes32)":"862a6408","renounceRole(bytes32,address)":"36568abe","revokeIdentity(address)":"0ebddd17","revokeRole(bytes32,address)":"d547741f","supportsInterface(bytes4)":"01ffc9a7"},"id":34}