{"abi":[{"type":"constructor","inputs":[{"name":"_forwarder","type":"address","internalType":"address"},{"name":"_token","type":"address","internalType":"address"},{"name":"admin","type":"address","internalType":"address"},{"name":"_initialBankBalance","type":"uint256","internalType":"uint256"}],"stateMutability":"nonpayable"},{"type":"function","name":"ADMIN_ROLE","inputs":[],"outputs":[{"name":"","type":"bytes32","internalType":"bytes32"}],"stateMutability":"view"},{"type":"function","name":"DEFAULT_ADMIN_ROLE","inputs":[],"outputs":[{"name":"","type":"bytes32","internalType":"bytes32"}],"stateMutability":"view"},{"type":"function","name":"OPERATOR_ROLE","inputs":[],"outputs":[{"name":"","type":"bytes32","internalType":"bytes32"}],"stateMutability":"view"},{"type":"function","name":"cancelOrder","inputs":[{"name":"orderId","type":"uint256","internalType":"uint256"},{"name":"reason","type":"string","internalType":"string"}],"outputs":[],"stateMutability":"nonpayable"},{"type":"function","name":"createOrder","inputs":[{"name":"orderId","type":"uint256","internalType":"uint256"},{"name":"recipient","type":"address","internalType":"address"},{"name":"amount","type":"uint256","internalType":"uint256"}],"outputs":[],"stateMutability":"nonpayable"},{"type":"function","name":"forwarder","inputs":[],"outputs":[{"name":"","type":"address","internalType":"address"}],"stateMutability":"view"},{"type":"function","name":"getRoleAdmin","inputs":[{"name":"role","type":"bytes32","internalType":"bytes32"}],"outputs":[{"name":"","type":"bytes32","internalType":"bytes32"}],"stateMutability":"view"},{"type":"function","name":"grantRole","inputs":[{"name":"role","type":"bytes32","internalType":"bytes32"},{"name":"account","type":"address","internalType":"address"}],"outputs":[],"stateMutability":"nonpayable"},{"type":"function","name":"hasRole","inputs":[{"name":"role","type":"bytes32","internalType":"bytes32"},{"name":"account","type":"address","internalType":"address"}],"outputs":[{"name":"","type":"bool","internalType":"bool"}],"stateMutability":"view"},{"type":"function","name":"lastProcessedBankBalance","inputs":[],"outputs":[{"name":"","type":"uint256","internalType":"uint256"}],"stateMutability":"view"},{"type":"function","name":"maxIdsPerReport","inputs":[],"outputs":[{"name":"","type":"uint256","internalType":"uint256"}],"stateMutability":"view"},{"type":"function","name":"onReport","inputs":[{"name":"","type":"bytes","internalType":"bytes"},{"name":"report","type":"bytes","internalType":"bytes"}],"outputs":[],"stateMutability":"nonpayable"},{"type":"function","name":"orders","inputs":[{"name":"","type":"uint256","internalType":"uint256"}],"outputs":[{"name":"recipient","type":"address","internalType":"address"},{"name":"amount","type":"uint256","internalType":"uint256"},{"name":"createdAt","type":"uint256","internalType":"uint256"},{"name":"status","type":"uint8","internalType":"enum BatchPoRApprovalMinter.Status"}],"stateMutability":"view"},{"type":"function","name":"pauseMinting","inputs":[],"outputs":[],"stateMutability":"nonpayable"},{"type":"function","name":"paused","inputs":[],"outputs":[{"name":"","type":"bool","internalType":"bool"}],"stateMutability":"view"},{"type":"function","name":"renounceRole","inputs":[{"name":"role","type":"bytes32","internalType":"bytes32"},{"name":"callerConfirmation","type":"address","internalType":"address"}],"outputs":[],"stateMutability":"nonpayable"},{"type":"function","name":"revokeRole","inputs":[{"name":"role","type":"bytes32","internalType":"bytes32"},{"name":"account","type":"address","internalType":"address"}],"outputs":[],"stateMutability":"nonpayable"},{"type":"function","name":"setMaxIdsPerReport","inputs":[{"name":"v","type":"uint256","internalType":"uint256"}],"outputs":[],"stateMutability":"nonpayable"},{"type":"function","name":"supportsInterface","inputs":[{"name":"interfaceId","type":"bytes4","internalType":"bytes4"}],"outputs":[{"name":"","type":"bool","internalType":"bool"}],"stateMutability":"view"},{"type":"function","name":"token","inputs":[],"outputs":[{"name":"","type":"address","internalType":"contract IMintableERC20"}],"stateMutability":"view"},{"type":"function","name":"unpauseMinting","inputs":[],"outputs":[],"stateMutability":"nonpayable"},{"type":"event","name":"BatchProcessed","inputs":[{"name":"newBankBalance","type":"uint256","indexed":false,"internalType":"uint256"},{"name":"delta","type":"uint256","indexed":false,"internalType":"uint256"},{"name":"sum","type":"uint256","indexed":false,"internalType":"uint256"},{"name":"count","type":"uint256","indexed":false,"internalType":"uint256"}],"anonymous":false},{"type":"event","name":"Minted","inputs":[{"name":"orderId","type":"uint256","indexed":true,"internalType":"uint256"},{"name":"recipient","type":"address","indexed":true,"internalType":"address"},{"name":"amount","type":"uint256","indexed":false,"internalType":"uint256"}],"anonymous":false},{"type":"event","name":"OrderCancelled","inputs":[{"name":"orderId","type":"uint256","indexed":true,"internalType":"uint256"},{"name":"reason","type":"string","indexed":false,"internalType":"string"}],"anonymous":false},{"type":"event","name":"OrderCreated","inputs":[{"name":"orderId","type":"uint256","indexed":true,"internalType":"uint256"},{"name":"recipient","type":"address","indexed":true,"internalType":"address"},{"name":"amount","type":"uint256","indexed":false,"internalType":"uint256"}],"anonymous":false},{"type":"event","name":"Paused","inputs":[{"name":"account","type":"address","indexed":false,"internalType":"address"}],"anonymous":false},{"type":"event","name":"RoleAdminChanged","inputs":[{"name":"role","type":"bytes32","indexed":true,"internalType":"bytes32"},{"name":"previousAdminRole","type":"bytes32","indexed":true,"internalType":"bytes32"},{"name":"newAdminRole","type":"bytes32","indexed":true,"internalType":"bytes32"}],"anonymous":false},{"type":"event","name":"RoleGranted","inputs":[{"name":"role","type":"bytes32","indexed":true,"internalType":"bytes32"},{"name":"account","type":"address","indexed":true,"internalType":"address"},{"name":"sender","type":"address","indexed":true,"internalType":"address"}],"anonymous":false},{"type":"event","name":"RoleRevoked","inputs":[{"name":"role","type":"bytes32","indexed":true,"internalType":"bytes32"},{"name":"account","type":"address","indexed":true,"internalType":"address"},{"name":"sender","type":"address","indexed":true,"internalType":"address"}],"anonymous":false},{"type":"event","name":"Unpaused","inputs":[{"name":"account","type":"address","indexed":false,"internalType":"address"}],"anonymous":false},{"type":"error","name":"AccessControlBadConfirmation","inputs":[]},{"type":"error","name":"AccessControlUnauthorizedAccount","inputs":[{"name":"account","type":"address","internalType":"address"},{"name":"neededRole","type":"bytes32","internalType":"bytes32"}]},{"type":"error","name":"AlreadyExists","inputs":[]},{"type":"error","name":"BadAmount","inputs":[]},{"type":"error","name":"BadRecipient","inputs":[]},{"type":"error","name":"BalanceDecreased","inputs":[]},{"type":"error","name":"DeltaMismatch","inputs":[{"name":"delta","type":"uint256","internalType":"uint256"},{"name":"sum","type":"uint256","internalType":"uint256"}]},{"type":"error","name":"EnforcedPause","inputs":[]},{"type":"error","name":"ExpectedPause","inputs":[]},{"type":"error","name":"NotPending","inputs":[{"name":"id","type":"uint256","internalType":"uint256"}]},{"type":"error","name":"OnlyForwarder","inputs":[]},{"type":"error","name":"TooManyIds","inputs":[{"name":"count","type":"uint256","internalType":"uint256"},{"name":"max","type":"uint256","internalType":"uint256"}]}],"bytecode":{"object":"0x60c0604052601960025534801562000015575f80fd5b506040516200128538038062001285833981016040819052620000389162000189565b6001600160a01b03808516608052831660a05260038190556200005c5f83620000c1565b50620000897fa49807205ce4d355092ef5a8a18f56e8913cf4a201fbe287825b095693c2177583620000c1565b50620000b67f97667070c54ef182b0f5858b034beac1b6f3089aa2d3188bb1e8929f4fa9b92983620000c1565b5050505050620001d8565b5f828152602081815260408083206001600160a01b038516845290915281205460ff1662000164575f838152602081815260408083206001600160a01b03861684529091529020805460ff191660011790556200011b3390565b6001600160a01b0316826001600160a01b0316847f2f8788117e7eff1d82e926ec794901d17c78024a50270940304540a733656f0d60405160405180910390a450600162000167565b505f5b92915050565b80516001600160a01b038116811462000184575f80fd5b919050565b5f805f80608085870312156200019d575f80fd5b620001a8856200016d565b9350620001b8602086016200016d565b9250620001c8604086016200016d565b6060959095015193969295505050565b60805160a05161107d620002085f395f818161032c015261062501525f81816102ed0152610400015261107d5ff3fe608060405234801561000f575f80fd5b5060043610610132575f3560e01c8063a217fddf116100b4578063d547741f11610079578063d547741f14610293578063da8fbf2a146102a6578063e2b91afb146102ae578063f5b541a6146102c1578063f645d4f9146102e8578063fc0c546a14610327575f80fd5b8063a217fddf1461020d578063a85c38ef14610214578063ad7e218114610265578063ae20032214610278578063c62b98c114610280575f80fd5b80635c975abb116100fa5780635c975abb146101bf57806369da460b146101ca57806375b238fc146101d3578063805f2132146101e757806391d14854146101fa575f80fd5b806301ffc9a7146101365780631a3145191461015e578063248a9ca3146101755780632f2ff15d1461019757806336568abe146101ac575b5f80fd5b610149610144366004610cc5565b61034e565b60405190151581526020015b60405180910390f35b61016760035481565b604051908152602001610155565b610167610183366004610cf3565b5f9081526020819052604090206001015490565b6101aa6101a5366004610d25565b610393565b005b6101aa6101ba366004610d25565b6103bd565b60015460ff16610149565b61016760025481565b6101675f8051602061102883398151915281565b6101aa6101f5366004610d94565b6103f5565b610149610208366004610d25565b610729565b6101675f81565b610255610222366004610cf3565b60046020525f908152604090208054600182015460028301546003909301546001600160a01b0390921692909160ff1684565b6040516101559493929190610e0f565b6101aa610273366004610e58565b610751565b6101aa610805565b6101aa61028e366004610cf3565b610827565b6101aa6102a1366004610d25565b61088a565b6101aa6108ae565b6101aa6102bc366004610ea0565b6108cd565b6101677f97667070c54ef182b0f5858b034beac1b6f3089aa2d3188bb1e8929f4fa9b92981565b61030f7f000000000000000000000000000000000000000000000000000000000000000081565b6040516001600160a01b039091168152602001610155565b61030f7f000000000000000000000000000000000000000000000000000000000000000081565b5f6001600160e01b0319821663402f909960e11b148061037e57506001600160e01b031982166301ffc9a760e01b145b8061038d575061038d82610a7c565b92915050565b5f828152602081905260409020600101546103ad81610ab0565b6103b78383610aba565b50505050565b6001600160a01b03811633146103e65760405163334bd91960e11b815260040160405180910390fd5b6103f08282610b49565b505050565b336001600160a01b037f0000000000000000000000000000000000000000000000000000000000000000161461043e5760405163a73d374160e01b815260040160405180910390fd5b610446610bb2565b5f8061045483850185610ee6565b9150915060035482101561047b5760405163a54d597f60e01b815260040160405180910390fd5b600254815111156104b257805160025460405163749d598f60e01b8152600481019290925260248201526044015b60405180910390fd5b5f600354836104c19190610fbf565b90505f805b835181101561057d575f60045f8684815181106104e5576104e5610fd2565b602002602001015181526020019081526020015f2090506001600381111561050f5761050f610dfb565b60038083015460ff169081111561052857610528610dfb565b146105635784828151811061053f5761053f610fd2565b60200260200101516040516312be5ae960e21b81526004016104a991815260200190565b60018101546105729084610fe6565b9250506001016104c6565b508082146105a85760405163a4926ecb60e01b815260048101839052602481018290526044016104a9565b5f5b83518110156106d0575f8482815181106105c6576105c6610fd2565b6020908102919091018101515f81815260049283905260409081902060038101805460ff191660021790558054600182015492516340c10f1960e01b81526001600160a01b0391821695810195909552602485019290925291935090917f0000000000000000000000000000000000000000000000000000000000000000909116906340c10f19906044015f604051808303815f87803b158015610668575f80fd5b505af115801561067a573d5f803e3d5ffd5b5050825460018401546040519081526001600160a01b0390911692508491507fc9d0543a84d3510329c0783b91576878ceb484e8699944cb5610c3436b3b8e399060200160405180910390a350506001016105aa565b506003849055825160408051868152602081018590528082018490526060810192909252517f59d088174aee33f5ff817f6507a076513b43d5b623c805aaca6d79677742f6e79181900360800190a15050505050505050565b5f918252602082815260408084206001600160a01b0393909316845291905290205460ff1690565b5f8051602061102883398151915261076881610ab0565b5f848152600460205260409020600160038083015460ff169081111561079057610790610dfb565b146107b1576040516312be5ae960e21b8152600481018690526024016104a9565b6003818101805460ff19166001830217905550847f56d64c06f67a0a2c80b38a9cd2b031e911c22a2c176bea4219adc7f5e3366a9285856040516107f6929190610ff9565b60405180910390a25050505050565b5f8051602061102883398151915261081c81610ab0565b610824610bd8565b50565b5f8051602061102883398151915261083e81610ab0565b5f8211801561084e575060c88211155b6108845760405162461bcd60e51b81526020600482015260076024820152660848288be9a82b60cb1b60448201526064016104a9565b50600255565b5f828152602081905260409020600101546108a481610ab0565b6103b78383610b49565b5f805160206110288339815191526108c581610ab0565b610824610c2a565b7f97667070c54ef182b0f5858b034beac1b6f3089aa2d3188bb1e8929f4fa9b9296108f781610ab0565b6001600160a01b03831661091e576040516333d1661360e11b815260040160405180910390fd5b815f0361093e5760405163749b593960e01b815260040160405180910390fd5b5f84815260046020526040812060039081015460ff169081111561096457610964610dfb565b146109825760405163119b4fd360e11b815260040160405180910390fd5b6040518060800160405280846001600160a01b03168152602001838152602001428152602001600160038111156109bb576109bb610dfb565b90525f85815260046020908152604091829020835181546001600160a01b0319166001600160a01b039091161781559083015160018083019190915591830151600282015560608301516003808301805493949293909260ff19909116918490811115610a2a57610a2a610dfb565b0217905550905050826001600160a01b0316847f28eb86fd03c9bd96a8a83e4a46ab2ad257b70cea893d98ad6d482e96aa25fad084604051610a6e91815260200190565b60405180910390a350505050565b5f6001600160e01b03198216637965db0b60e01b148061038d57506301ffc9a760e01b6001600160e01b031983161461038d565b6108248133610c65565b5f610ac58383610729565b610b42575f838152602081815260408083206001600160a01b03861684529091529020805460ff19166001179055610afa3390565b6001600160a01b0316826001600160a01b0316847f2f8788117e7eff1d82e926ec794901d17c78024a50270940304540a733656f0d60405160405180910390a450600161038d565b505f61038d565b5f610b548383610729565b15610b42575f838152602081815260408083206001600160a01b0386168085529252808320805460ff1916905551339286917ff6391f5c32d9c69d2a47ea670b442974b53935d1edc7fd64eb21e047a839171b9190a450600161038d565b60015460ff1615610bd65760405163d93c066560e01b815260040160405180910390fd5b565b610be0610ca2565b6001805460ff191690557f5db9ee0a495bf2e6ff9c91a7834c1ba4fdd244a5e8aa4e537bd38aeae4b073aa335b6040516001600160a01b03909116815260200160405180910390a1565b610c32610bb2565b6001805460ff1916811790557f62e78cea01bee320cd4e420270b5ea74000d11b0c9f74754ebdbfc544b05a25833610c0d565b610c6f8282610729565b610c9e5760405163e2517d3f60e01b81526001600160a01b0382166004820152602481018390526044016104a9565b5050565b60015460ff16610bd657604051638dfc202b60e01b815260040160405180910390fd5b5f60208284031215610cd5575f80fd5b81356001600160e01b031981168114610cec575f80fd5b9392505050565b5f60208284031215610d03575f80fd5b5035919050565b80356001600160a01b0381168114610d20575f80fd5b919050565b5f8060408385031215610d36575f80fd5b82359150610d4660208401610d0a565b90509250929050565b5f8083601f840112610d5f575f80fd5b50813567ffffffffffffffff811115610d76575f80fd5b602083019150836020828501011115610d8d575f80fd5b9250929050565b5f805f8060408587031215610da7575f80fd5b843567ffffffffffffffff80821115610dbe575f80fd5b610dca88838901610d4f565b90965094506020870135915080821115610de2575f80fd5b50610def87828801610d4f565b95989497509550505050565b634e487b7160e01b5f52602160045260245ffd5b6001600160a01b038516815260208101849052604081018390526080810160048310610e4957634e487b7160e01b5f52602160045260245ffd5b82606083015295945050505050565b5f805f60408486031215610e6a575f80fd5b83359250602084013567ffffffffffffffff811115610e87575f80fd5b610e9386828701610d4f565b9497909650939450505050565b5f805f60608486031215610eb2575f80fd5b83359250610ec260208501610d0a565b9150604084013590509250925092565b634e487b7160e01b5f52604160045260245ffd5b5f8060408385031215610ef7575f80fd5b8235915060208084013567ffffffffffffffff80821115610f16575f80fd5b818601915086601f830112610f29575f80fd5b813581811115610f3b57610f3b610ed2565b8060051b604051601f19603f83011681018181108582111715610f6057610f60610ed2565b604052918252848201925083810185019189831115610f7d575f80fd5b938501935b82851015610f9b57843584529385019392850192610f82565b8096505050505050509250929050565b634e487b7160e01b5f52601160045260245ffd5b8181038181111561038d5761038d610fab565b634e487b7160e01b5f52603260045260245ffd5b8082018082111561038d5761038d610fab565b60208152816020820152818360408301375f818301604090810191909152601f909201601f1916010191905056fea49807205ce4d355092ef5a8a18f56e8913cf4a201fbe287825b095693c21775a2646970667358221220c2af4d109fb1e607eaf92c3d07429a43c54fe77483478e15aa654d82eb0bc0b364736f6c63430008180033","linkReferences":{}},"methodIdentifiers":{"ADMIN_ROLE()":"75b238fc","DEFAULT_ADMIN_ROLE()":"a217fddf","OPERATOR_ROLE()":"f5b541a6","cancelOrder(uint256,string)":"ad7e2181","createOrder(uint256,address,uint256)":"e2b91afb","forwarder()":"f645d4f9","getRoleAdmin(bytes32)":"248a9ca3","grantRole(bytes32,address)":"2f2ff15d","hasRole(bytes32,address)":"91d14854","lastProcessedBankBalance()":"1a314519","maxIdsPerReport()":"69da460b","onReport(bytes,bytes)":"805f2132","orders(uint256)":"a85c38ef","pauseMinting()":"da8fbf2a","paused()":"5c975abb","renounceRole(bytes32,address)":"36568abe","revokeRole(bytes32,address)":"d547741f","setMaxIdsPerReport(uint256)":"c62b98c1","supportsInterface(bytes4)":"01ffc9a7","token()":"fc0c546a","unpauseMinting()":"ae200322"},"id":37}