{"abi":[{"type":"constructor","inputs":[{"name":"admin","type":"address","internalType":"address"},{"name":"_policyManager","type":"address","internalType":"address"}],"stateMutability":"nonpayable"},{"type":"function","name":"DEFAULT_ADMIN_ROLE","inputs":[],"outputs":[{"name":"","type":"bytes32","internalType":"bytes32"}],"stateMutability":"view"},{"type":"function","name":"MINTER_ROLE","inputs":[],"outputs":[{"name":"","type":"bytes32","internalType":"bytes32"}],"stateMutability":"view"},{"type":"function","name":"allowance","inputs":[{"name":"owner","type":"address","internalType":"address"},{"name":"spender","type":"address","internalType":"address"}],"outputs":[{"name":"","type":"uint256","internalType":"uint256"}],"stateMutability":"view"},{"type":"function","name":"approve","inputs":[{"name":"spender","type":"address","internalType":"address"},{"name":"value","type":"uint256","internalType":"uint256"}],"outputs":[{"name":"","type":"bool","internalType":"bool"}],"stateMutability":"nonpayable"},{"type":"function","name":"balanceOf","inputs":[{"name":"account","type":"address","internalType":"address"}],"outputs":[{"name":"","type":"uint256","internalType":"uint256"}],"stateMutability":"view"},{"type":"function","name":"burn","inputs":[{"name":"amount","type":"uint256","internalType":"uint256"}],"outputs":[],"stateMutability":"nonpayable"},{"type":"function","name":"burnByMinter","inputs":[{"name":"from","type":"address","internalType":"address"},{"name":"amount","type":"uint256","internalType":"uint256"}],"outputs":[],"stateMutability":"nonpayable"},{"type":"function","name":"burnFrom","inputs":[{"name":"account","type":"address","internalType":"address"},{"name":"amount","type":"uint256","internalType":"uint256"}],"outputs":[],"stateMutability":"nonpayable"},{"type":"function","name":"decimals","inputs":[],"outputs":[{"name":"","type":"uint8","internalType":"uint8"}],"stateMutability":"view"},{"type":"function","name":"executePolicyManagerUpdate","inputs":[],"outputs":[],"stateMutability":"nonpayable"},{"type":"function","name":"getRoleAdmin","inputs":[{"name":"role","type":"bytes32","internalType":"bytes32"}],"outputs":[{"name":"","type":"bytes32","internalType":"bytes32"}],"stateMutability":"view"},{"type":"function","name":"grantRole","inputs":[{"name":"role","type":"bytes32","internalType":"bytes32"},{"name":"account","type":"address","internalType":"address"}],"outputs":[],"stateMutability":"nonpayable"},{"type":"function","name":"hasRole","inputs":[{"name":"role","type":"bytes32","internalType":"bytes32"},{"name":"account","type":"address","internalType":"address"}],"outputs":[{"name":"","type":"bool","internalType":"bool"}],"stateMutability":"view"},{"type":"function","name":"mint","inputs":[{"name":"to","type":"address","internalType":"address"},{"name":"amount","type":"uint256","internalType":"uint256"}],"outputs":[],"stateMutability":"nonpayable"},{"type":"function","name":"name","inputs":[],"outputs":[{"name":"","type":"string","internalType":"string"}],"stateMutability":"view"},{"type":"function","name":"pause","inputs":[],"outputs":[],"stateMutability":"nonpayable"},{"type":"function","name":"paused","inputs":[],"outputs":[{"name":"","type":"bool","internalType":"bool"}],"stateMutability":"view"},{"type":"function","name":"pendingPolicyManager","inputs":[],"outputs":[{"name":"","type":"address","internalType":"address"}],"stateMutability":"view"},{"type":"function","name":"pendingPolicyManagerTime","inputs":[],"outputs":[{"name":"","type":"uint256","internalType":"uint256"}],"stateMutability":"view"},{"type":"function","name":"policyManager","inputs":[],"outputs":[{"name":"","type":"address","internalType":"contract IPolicyManager"}],"stateMutability":"view"},{"type":"function","name":"renounceRole","inputs":[{"name":"role","type":"bytes32","internalType":"bytes32"},{"name":"callerConfirmation","type":"address","internalType":"address"}],"outputs":[],"stateMutability":"nonpayable"},{"type":"function","name":"revokeRole","inputs":[{"name":"role","type":"bytes32","internalType":"bytes32"},{"name":"account","type":"address","internalType":"address"}],"outputs":[],"stateMutability":"nonpayable"},{"type":"function","name":"setMinter","inputs":[{"name":"m","type":"address","internalType":"address"}],"outputs":[],"stateMutability":"nonpayable"},{"type":"function","name":"supportsInterface","inputs":[{"name":"interfaceId","type":"bytes4","internalType":"bytes4"}],"outputs":[{"name":"","type":"bool","internalType":"bool"}],"stateMutability":"view"},{"type":"function","name":"symbol","inputs":[],"outputs":[{"name":"","type":"string","internalType":"string"}],"stateMutability":"view"},{"type":"function","name":"totalSupply","inputs":[],"outputs":[{"name":"","type":"uint256","internalType":"uint256"}],"stateMutability":"view"},{"type":"function","name":"transfer","inputs":[{"name":"to","type":"address","internalType":"address"},{"name":"value","type":"uint256","internalType":"uint256"}],"outputs":[{"name":"","type":"bool","internalType":"bool"}],"stateMutability":"nonpayable"},{"type":"function","name":"transferFrom","inputs":[{"name":"from","type":"address","internalType":"address"},{"name":"to","type":"address","internalType":"address"},{"name":"value","type":"uint256","internalType":"uint256"}],"outputs":[{"name":"","type":"bool","internalType":"bool"}],"stateMutability":"nonpayable"},{"type":"function","name":"unpause","inputs":[],"outputs":[],"stateMutability":"nonpayable"},{"type":"function","name":"updateCompliance","inputs":[{"name":"_policyManager","type":"address","internalType":"address"}],"outputs":[],"stateMutability":"nonpayable"},{"type":"event","name":"Approval","inputs":[{"name":"owner","type":"address","indexed":true,"internalType":"address"},{"name":"spender","type":"address","indexed":true,"internalType":"address"},{"name":"value","type":"uint256","indexed":false,"internalType":"uint256"}],"anonymous":false},{"type":"event","name":"Paused","inputs":[{"name":"account","type":"address","indexed":false,"internalType":"address"}],"anonymous":false},{"type":"event","name":"PolicyManagerUpdateQueued","inputs":[{"name":"newPolicyManager","type":"address","indexed":false,"internalType":"address"},{"name":"executeAfter","type":"uint256","indexed":false,"internalType":"uint256"}],"anonymous":false},{"type":"event","name":"PolicyManagerUpdated","inputs":[{"name":"oldPolicyManager","type":"address","indexed":false,"internalType":"address"},{"name":"newPolicyManager","type":"address","indexed":false,"internalType":"address"}],"anonymous":false},{"type":"event","name":"RoleAdminChanged","inputs":[{"name":"role","type":"bytes32","indexed":true,"internalType":"bytes32"},{"name":"previousAdminRole","type":"bytes32","indexed":true,"internalType":"bytes32"},{"name":"newAdminRole","type":"bytes32","indexed":true,"internalType":"bytes32"}],"anonymous":false},{"type":"event","name":"RoleGranted","inputs":[{"name":"role","type":"bytes32","indexed":true,"internalType":"bytes32"},{"name":"account","type":"address","indexed":true,"internalType":"address"},{"name":"sender","type":"address","indexed":true,"internalType":"address"}],"anonymous":false},{"type":"event","name":"RoleRevoked","inputs":[{"name":"role","type":"bytes32","indexed":true,"internalType":"bytes32"},{"name":"account","type":"address","indexed":true,"internalType":"address"},{"name":"sender","type":"address","indexed":true,"internalType":"address"}],"anonymous":false},{"type":"event","name":"Transfer","inputs":[{"name":"from","type":"address","indexed":true,"internalType":"address"},{"name":"to","type":"address","indexed":true,"internalType":"address"},{"name":"value","type":"uint256","indexed":false,"internalType":"uint256"}],"anonymous":false},{"type":"event","name":"Unpaused","inputs":[{"name":"account","type":"address","indexed":false,"internalType":"address"}],"anonymous":false},{"type":"error","name":"AccessControlBadConfirmation","inputs":[]},{"type":"error","name":"AccessControlUnauthorizedAccount","inputs":[{"name":"account","type":"address","internalType":"address"},{"name":"neededRole","type":"bytes32","internalType":"bytes32"}]},{"type":"error","name":"ComplianceViolation","inputs":[{"name":"reason","type":"string","internalType":"string"}]},{"type":"error","name":"ERC20InsufficientAllowance","inputs":[{"name":"spender","type":"address","internalType":"address"},{"name":"allowance","type":"uint256","internalType":"uint256"},{"name":"needed","type":"uint256","internalType":"uint256"}]},{"type":"error","name":"ERC20InsufficientBalance","inputs":[{"name":"sender","type":"address","internalType":"address"},{"name":"balance","type":"uint256","internalType":"uint256"},{"name":"needed","type":"uint256","internalType":"uint256"}]},{"type":"error","name":"ERC20InvalidApprover","inputs":[{"name":"approver","type":"address","internalType":"address"}]},{"type":"error","name":"ERC20InvalidReceiver","inputs":[{"name":"receiver","type":"address","internalType":"address"}]},{"type":"error","name":"ERC20InvalidSender","inputs":[{"name":"sender","type":"address","internalType":"address"}]},{"type":"error","name":"ERC20InvalidSpender","inputs":[{"name":"spender","type":"address","internalType":"address"}]},{"type":"error","name":"EnforcedPause","inputs":[]},{"type":"error","name":"ExpectedPause","inputs":[]},{"type":"error","name":"NoUpdateQueued","inputs":[]},{"type":"error","name":"NotMinter","inputs":[]},{"type":"error","name":"ReentrancyGuardReentrantCall","inputs":[]},{"type":"error","name":"TimelockNotElapsed","inputs":[]}],"bytecode":{"object":"0x608060405234801562000010575f80fd5b50604051620017723803806200177283398101604081905262000033916200019f565b6040518060400160405280600e81526020016d2127a11029ba30b13632b1b7b4b760911b81525060405180604001604052806004815260200163424f427360e01b815250816003908162000088919062000273565b50600462000097828262000273565b5050600160075550620000ab5f83620000d3565b50600880546001600160a01b0319166001600160a01b0392909216919091179055506200033f565b5f8281526005602090815260408083206001600160a01b038516845290915281205460ff166200017a575f8381526005602090815260408083206001600160a01b03861684529091529020805460ff19166001179055620001313390565b6001600160a01b0316826001600160a01b0316847f2f8788117e7eff1d82e926ec794901d17c78024a50270940304540a733656f0d60405160405180910390a45060016200017d565b505f5b92915050565b80516001600160a01b03811681146200019a575f80fd5b919050565b5f8060408385031215620001b1575f80fd5b620001bc8362000183565b9150620001cc6020840162000183565b90509250929050565b634e487b7160e01b5f52604160045260245ffd5b600181811c90821680620001fe57607f821691505b6020821081036200021d57634e487b7160e01b5f52602260045260245ffd5b50919050565b601f8211156200026e57805f5260205f20601f840160051c810160208510156200024a5750805b601f840160051c820191505b818110156200026b575f815560010162000256565b50505b505050565b81516001600160401b038111156200028f576200028f620001d5565b620002a781620002a08454620001e9565b8462000223565b602080601f831160018114620002dd575f8415620002c55750858301515b5f19600386901b1c1916600185901b17855562000337565b5f85815260208120601f198616915b828110156200030d57888601518255948401946001909101908401620002ec565b50858210156200032b57878501515f19600388901b60f8161c191681555b505060018460011b0185555b505050505050565b611425806200034d5f395ff3fe608060405234801561000f575f80fd5b50600436106101d1575f3560e01c806340c10f19116100fe57806395d89b411161009e578063d53913931161006e578063d5391393146103c9578063d547741f146103dd578063dd62ed3e146103f0578063fca3b5aa14610428575f80fd5b806395d89b4114610394578063a217fddf1461039c578063a9059cbb146103a3578063ab3dbf3b146103b6575f80fd5b806370a08231116100d957806370a082311461033e57806379cc6790146103665780638456cb591461037957806391d1485414610381575f80fd5b806340c10f191461030d57806342966c68146103205780635c975abb14610333575f80fd5b8063248a9ca31161017457806336568abe1161014457806336568abe146102d657806339e09467146102e95780633adb2cff146102f25780633f4ba83a14610305575f80fd5b8063248a9ca31461027f57806329442525146102a15780632f2ff15d146102b4578063313ce567146102c7575f80fd5b806318160ddd116101af57806318160ddd146102255780632094147814610237578063238953fe1461026257806323b872dd1461026c575f80fd5b806301ffc9a7146101d557806306fdde03146101fd578063095ea7b314610212575b5f80fd5b6101e86101e3366004611122565b61043b565b60405190151581526020015b60405180910390f35b610205610471565b6040516101f49190611172565b6101e86102203660046111bf565b610501565b6002545b6040519081526020016101f4565b60095461024a906001600160a01b031681565b6040516001600160a01b0390911681526020016101f4565b61026a610518565b005b6101e861027a3660046111e7565b6105e6565b61022961028d366004611220565b5f9081526005602052604090206001015490565b61026a6102af3660046111bf565b610609565b61026a6102c2366004611237565b610641565b604051601281526020016101f4565b61026a6102e4366004611237565b61066b565b610229600a5481565b61026a610300366004611261565b61069e565b61026a61071c565b61026a61031b3660046111bf565b610731565b61026a61032e366004611220565b61075a565b60065460ff166101e8565b61022961034c366004611261565b6001600160a01b03165f9081526020819052604090205490565b61026a6103743660046111bf565b610764565b61026a61078f565b6101e861038f366004611237565b6107a1565b6102056107cb565b6102295f81565b6101e86103b13660046111bf565b6107da565b60085461024a906001600160a01b031681565b6102295f805160206113d083398151915281565b61026a6103eb366004611237565b6107e7565b6102296103fe36600461127a565b6001600160a01b039182165f90815260016020908152604080832093909416825291909152205490565b61026a610436366004611261565b61080b565b5f6001600160e01b03198216637965db0b60e01b148061046b57506301ffc9a760e01b6001600160e01b03198316145b92915050565b606060038054610480906112a2565b80601f01602080910402602001604051908101604052809291908181526020018280546104ac906112a2565b80156104f75780601f106104ce576101008083540402835291602001916104f7565b820191905f5260205f20905b8154815290600101906020018083116104da57829003601f168201915b5050505050905090565b5f3361050e81858561082c565b5060019392505050565b5f61052281610839565b6009546001600160a01b031661054b5760405163c7dba29760e01b815260040160405180910390fd5b600a5442101561056e5760405163333bd2cb60e11b815260040160405180910390fd5b600880546009546001600160a01b039081166001600160a01b031983168117909355604080519190921680825260208201939093527f8db82d3061f259c28cee172c5d954c7be330a7ee1d949d6fc6e29b7e4c12447e910160405180910390a15050600980546001600160a01b03191690555f600a55565b5f336105f3858285610843565b6105fe8585856108be565b506001949350505050565b5f805160206113d083398151915261062081610839565b61062861091b565b6106328383610945565b61063c6001600755565b505050565b5f8281526005602052604090206001015461065b81610839565b6106658383610979565b50505050565b6001600160a01b03811633146106945760405163334bd91960e11b815260040160405180910390fd5b61063c8282610a0a565b5f6106a881610839565b600980546001600160a01b0319166001600160a01b0384161790556106d06202a300426112da565b600a819055604080516001600160a01b038516815260208101929092527fecbf2aff1e1cd5d157acc716e111256e689894f2062d8aa0a96969fbe1a896c7910160405180910390a15050565b5f61072681610839565b61072e610a75565b50565b5f805160206113d083398151915261074881610839565b61075061091b565b6106328383610ac7565b61072e3382610945565b61076c61091b565b610777823383610843565b6107818282610945565b61078b6001600755565b5050565b5f61079981610839565b61072e610afb565b5f9182526005602090815260408084206001600160a01b0393909316845291905290205460ff1690565b606060048054610480906112a2565b5f3361050e8185856108be565b5f8281526005602052604090206001015461080181610839565b6106658383610a0a565b5f61081581610839565b61063c5f805160206113d083398151915283610979565b61063c8383836001610b38565b61072e8133610c0a565b6001600160a01b038381165f908152600160209081526040808320938616835292905220545f1981101561066557818110156108b057604051637dc7a0d960e11b81526001600160a01b038416600482015260248101829052604481018390526064015b60405180910390fd5b61066584848484035f610b38565b6001600160a01b0383166108e757604051634b637e8f60e11b81525f60048201526024016108a7565b6001600160a01b0382166109105760405163ec442f0560e01b81525f60048201526024016108a7565b61063c838383610c43565b60026007540361093e57604051633ee5aeb560e01b815260040160405180910390fd5b6002600755565b6001600160a01b03821661096e57604051634b637e8f60e11b81525f60048201526024016108a7565b61078b825f83610c43565b5f61098483836107a1565b610a03575f8381526005602090815260408083206001600160a01b03861684529091529020805460ff191660011790556109bb3390565b6001600160a01b0316826001600160a01b0316847f2f8788117e7eff1d82e926ec794901d17c78024a50270940304540a733656f0d60405160405180910390a450600161046b565b505f61046b565b5f610a1583836107a1565b15610a03575f8381526005602090815260408083206001600160a01b0386168085529252808320805460ff1916905551339286917ff6391f5c32d9c69d2a47ea670b442974b53935d1edc7fd64eb21e047a839171b9190a450600161046b565b610a7d610fb3565b6006805460ff191690557f5db9ee0a495bf2e6ff9c91a7834c1ba4fdd244a5e8aa4e537bd38aeae4b073aa335b6040516001600160a01b03909116815260200160405180910390a1565b6001600160a01b038216610af05760405163ec442f0560e01b81525f60048201526024016108a7565b61078b5f8383610c43565b610b03610fd8565b6006805460ff191660011790557f62e78cea01bee320cd4e420270b5ea74000d11b0c9f74754ebdbfc544b05a258610aaa3390565b6001600160a01b038416610b615760405163e602df0560e01b81525f60048201526024016108a7565b6001600160a01b038316610b8a57604051634a1406b160e11b81525f60048201526024016108a7565b6001600160a01b038085165f908152600160209081526040808320938716835292905220829055801561066557826001600160a01b0316846001600160a01b03167f8c5be1e5ebec7d5bd14f71427d1e84f3dd0314c0f7b2291e5b200ac8c7c3b92584604051610bfc91815260200190565b60405180910390a350505050565b610c1482826107a1565b61078b5760405163e2517d3f60e01b81526001600160a01b0382166004820152602481018390526044016108a7565b610c4b610fd8565b6001600160a01b03831615801590610c6b57506001600160a01b03821615155b15610d855760085460405163cc1dd94f60e01b81526001600160a01b0385811660048301528481166024830152604482018490525f92839291169063cc1dd94f906064015f60405180830381865afa158015610cc9573d5f803e3d5ffd5b505050506040513d5f823e601f3d908101601f19168201604052610cf0919081019061130d565b9150915081610d14578060405163e4b7440760e01b81526004016108a79190611172565b6008546040516301e3a90360e01b81526001600160a01b038781166004830152868116602483015260448201869052909116906301e3a903906064015b5f604051808303815f87803b158015610d68575f80fd5b505af1158015610d7a573d5f803e3d5ffd5b505050505050610fa8565b6001600160a01b038316158015610da457506001600160a01b03821615155b15610e7e5760085460405163e2898bd560e01b81526001600160a01b038481166004830152602482018490525f92839291169063e2898bd5906044015f60405180830381865afa158015610dfa573d5f803e3d5ffd5b505050506040513d5f823e601f3d908101601f19168201604052610e21919081019061130d565b9150915081610e45578060405163e4b7440760e01b81526004016108a79190611172565b6008546040516303e03e6d60e11b81526001600160a01b03868116600483015260248201869052909116906307c07cda90604401610d51565b6001600160a01b03831615801590610e9d57506001600160a01b038216155b15610fa857600854604051636dbb8b9f60e01b81526001600160a01b038581166004830152602482018490525f928392911690636dbb8b9f906044015f60405180830381865afa158015610ef3573d5f803e3d5ffd5b505050506040513d5f823e601f3d908101601f19168201604052610f1a919081019061130d565b9150915081610f3e578060405163e4b7440760e01b81526004016108a79190611172565b6008546040516301e3a90360e01b81526001600160a01b0387811660048301525f602483015260448201869052909116906301e3a903906064015f604051808303815f87803b158015610f8f575f80fd5b505af1158015610fa1573d5f803e3d5ffd5b5050505050505b61063c838383610ffc565b60065460ff16610fd657604051638dfc202b60e01b815260040160405180910390fd5b565b60065460ff1615610fd65760405163d93c066560e01b815260040160405180910390fd5b6001600160a01b038316611026578060025f82825461101b91906112da565b909155506110969050565b6001600160a01b0383165f90815260208190526040902054818110156110785760405163391434e360e21b81526001600160a01b038516600482015260248101829052604481018390526064016108a7565b6001600160a01b0384165f9081526020819052604090209082900390555b6001600160a01b0382166110b2576002805482900390556110d0565b6001600160a01b0382165f9081526020819052604090208054820190555b816001600160a01b0316836001600160a01b03167fddf252ad1be2c89b69c2b068fc378daa952ba7f163c4a11628f55a4df523b3ef8360405161111591815260200190565b60405180910390a3505050565b5f60208284031215611132575f80fd5b81356001600160e01b031981168114611149575f80fd5b9392505050565b5f5b8381101561116a578181015183820152602001611152565b50505f910152565b602081525f8251806020840152611190816040850160208701611150565b601f01601f19169190910160400192915050565b80356001600160a01b03811681146111ba575f80fd5b919050565b5f80604083850312156111d0575f80fd5b6111d9836111a4565b946020939093013593505050565b5f805f606084860312156111f9575f80fd5b611202846111a4565b9250611210602085016111a4565b9150604084013590509250925092565b5f60208284031215611230575f80fd5b5035919050565b5f8060408385031215611248575f80fd5b82359150611258602084016111a4565b90509250929050565b5f60208284031215611271575f80fd5b611149826111a4565b5f806040838503121561128b575f80fd5b611294836111a4565b9150611258602084016111a4565b600181811c908216806112b657607f821691505b6020821081036112d457634e487b7160e01b5f52602260045260245ffd5b50919050565b8082018082111561046b57634e487b7160e01b5f52601160045260245ffd5b634e487b7160e01b5f52604160045260245ffd5b5f806040838503121561131e575f80fd5b8251801515811461132d575f80fd5b602084015190925067ffffffffffffffff8082111561134a575f80fd5b818501915085601f83011261135d575f80fd5b81518181111561136f5761136f6112f9565b604051601f8201601f19908116603f01168101908382118183101715611397576113976112f9565b816040528281528860208487010111156113af575f80fd5b6113c0836020830160208801611150565b8095505050505050925092905056fe9f2df0fed2c77648de5860a4cc508cd0818c85b8b8a1ab4ceeef8d981c8956a6a2646970667358221220e05a62e4e5eebd7edb34ad32aaf4324c124ac9169f91f9a5765f7e838ed4350964736f6c63430008180033","linkReferences":{}},"methodIdentifiers":{"DEFAULT_ADMIN_ROLE()":"a217fddf","MINTER_ROLE()":"d5391393","allowance(address,address)":"dd62ed3e","approve(address,uint256)":"095ea7b3","balanceOf(address)":"70a08231","burn(uint256)":"42966c68","burnByMinter(address,uint256)":"29442525","burnFrom(address,uint256)":"79cc6790","decimals()":"313ce567","executePolicyManagerUpdate()":"238953fe","getRoleAdmin(bytes32)":"248a9ca3","grantRole(bytes32,address)":"2f2ff15d","hasRole(bytes32,address)":"91d14854","mint(address,uint256)":"40c10f19","name()":"06fdde03","pause()":"8456cb59","paused()":"5c975abb","pendingPolicyManager()":"20941478","pendingPolicyManagerTime()":"39e09467","policyManager()":"ab3dbf3b","renounceRole(bytes32,address)":"36568abe","revokeRole(bytes32,address)":"d547741f","setMinter(address)":"fca3b5aa","supportsInterface(bytes4)":"01ffc9a7","symbol()":"95d89b41","totalSupply()":"18160ddd","transfer(address,uint256)":"a9059cbb","transferFrom(address,address,uint256)":"23b872dd","unpause()":"3f4ba83a","updateCompliance(address)":"3adb2cff"},"id":43}