{"abi":[{"type":"constructor","inputs":[{"name":"admin","type":"address","internalType":"address"},{"name":"_token","type":"address","internalType":"address"},{"name":"_ccidRegistry","type":"address","internalType":"address"},{"name":"_policyManager","type":"address","internalType":"address"}],"stateMutability":"nonpayable"},{"type":"function","name":"DEFAULT_ADMIN_ROLE","inputs":[],"outputs":[{"name":"","type":"bytes32","internalType":"bytes32"}],"stateMutability":"view"},{"type":"function","name":"MIN_REDEEM","inputs":[],"outputs":[{"name":"","type":"uint256","internalType":"uint256"}],"stateMutability":"view"},{"type":"function","name":"ORACLE_ROLE","inputs":[],"outputs":[{"name":"","type":"bytes32","internalType":"bytes32"}],"stateMutability":"view"},{"type":"function","name":"UIF_THRESHOLD","inputs":[],"outputs":[{"name":"","type":"uint256","internalType":"uint256"}],"stateMutability":"view"},{"type":"function","name":"bankAccountByWallet","inputs":[{"name":"","type":"address","internalType":"address"}],"outputs":[{"name":"","type":"string","internalType":"string"}],"stateMutability":"view"},{"type":"function","name":"ccidRegistry","inputs":[],"outputs":[{"name":"","type":"address","internalType":"contract ICCIDRegistry"}],"stateMutability":"view"},{"type":"function","name":"confirmRedeemExecuted","inputs":[{"name":"redeemId","type":"bytes32","internalType":"bytes32"}],"outputs":[],"stateMutability":"nonpayable"},{"type":"function","name":"executeCCIDRegistryUpdate","inputs":[],"outputs":[],"stateMutability":"nonpayable"},{"type":"function","name":"executePolicyManagerUpdate","inputs":[],"outputs":[],"stateMutability":"nonpayable"},{"type":"function","name":"forceRedeem","inputs":[{"name":"wallet","type":"address","internalType":"address"},{"name":"amount","type":"uint256","internalType":"uint256"}],"outputs":[],"stateMutability":"nonpayable"},{"type":"function","name":"getRoleAdmin","inputs":[{"name":"role","type":"bytes32","internalType":"bytes32"}],"outputs":[{"name":"","type":"bytes32","internalType":"bytes32"}],"stateMutability":"view"},{"type":"function","name":"grantRole","inputs":[{"name":"role","type":"bytes32","internalType":"bytes32"},{"name":"account","type":"address","internalType":"address"}],"outputs":[],"stateMutability":"nonpayable"},{"type":"function","name":"hasRole","inputs":[{"name":"role","type":"bytes32","internalType":"bytes32"},{"name":"account","type":"address","internalType":"address"}],"outputs":[{"name":"","type":"bool","internalType":"bool"}],"stateMutability":"view"},{"type":"function","name":"linkBankAccount","inputs":[{"name":"wallet","type":"address","internalType":"address"},{"name":"accountId","type":"string","internalType":"string"}],"outputs":[],"stateMutability":"nonpayable"},{"type":"function","name":"pendingCCIDRegistry","inputs":[],"outputs":[{"name":"","type":"address","internalType":"address"}],"stateMutability":"view"},{"type":"function","name":"pendingCCIDRegistryTime","inputs":[],"outputs":[{"name":"","type":"uint256","internalType":"uint256"}],"stateMutability":"view"},{"type":"function","name":"pendingPolicyManager","inputs":[],"outputs":[{"name":"","type":"address","internalType":"address"}],"stateMutability":"view"},{"type":"function","name":"pendingPolicyManagerTime","inputs":[],"outputs":[{"name":"","type":"uint256","internalType":"uint256"}],"stateMutability":"view"},{"type":"function","name":"policyManager","inputs":[],"outputs":[{"name":"","type":"address","internalType":"contract IPolicyManager"}],"stateMutability":"view"},{"type":"function","name":"processedRedeems","inputs":[{"name":"","type":"bytes32","internalType":"bytes32"}],"outputs":[{"name":"","type":"bool","internalType":"bool"}],"stateMutability":"view"},{"type":"function","name":"redeem","inputs":[{"name":"amount","type":"uint256","internalType":"uint256"}],"outputs":[],"stateMutability":"nonpayable"},{"type":"function","name":"renounceRole","inputs":[{"name":"role","type":"bytes32","internalType":"bytes32"},{"name":"callerConfirmation","type":"address","internalType":"address"}],"outputs":[],"stateMutability":"nonpayable"},{"type":"function","name":"revokeRole","inputs":[{"name":"role","type":"bytes32","internalType":"bytes32"},{"name":"account","type":"address","internalType":"address"}],"outputs":[],"stateMutability":"nonpayable"},{"type":"function","name":"supportsInterface","inputs":[{"name":"interfaceId","type":"bytes4","internalType":"bytes4"}],"outputs":[{"name":"","type":"bool","internalType":"bool"}],"stateMutability":"view"},{"type":"function","name":"token","inputs":[],"outputs":[{"name":"","type":"address","internalType":"contract StablecoinBOB"}],"stateMutability":"view"},{"type":"function","name":"updateCCIDRegistry","inputs":[{"name":"_ccidRegistry","type":"address","internalType":"address"}],"outputs":[],"stateMutability":"nonpayable"},{"type":"function","name":"updatePolicyManager","inputs":[{"name":"_policyManager","type":"address","internalType":"address"}],"outputs":[],"stateMutability":"nonpayable"},{"type":"event","name":"BankAccountLinked","inputs":[{"name":"wallet","type":"address","indexed":true,"internalType":"address"},{"name":"accountId","type":"string","indexed":false,"internalType":"string"}],"anonymous":false},{"type":"event","name":"CCIDRegistryUpdateQueued","inputs":[{"name":"newCCIDRegistry","type":"address","indexed":false,"internalType":"address"},{"name":"executeAfter","type":"uint256","indexed":false,"internalType":"uint256"}],"anonymous":false},{"type":"event","name":"CCIDRegistryUpdated","inputs":[{"name":"oldCCIDRegistry","type":"address","indexed":false,"internalType":"address"},{"name":"newCCIDRegistry","type":"address","indexed":false,"internalType":"address"}],"anonymous":false},{"type":"event","name":"ForceRedeemExecuted","inputs":[{"name":"redeemId","type":"bytes32","indexed":true,"internalType":"bytes32"},{"name":"wallet","type":"address","indexed":true,"internalType":"address"},{"name":"amount","type":"uint256","indexed":false,"internalType":"uint256"},{"name":"bankAccount","type":"string","indexed":false,"internalType":"string"},{"name":"admin","type":"address","indexed":false,"internalType":"address"}],"anonymous":false},{"type":"event","name":"PolicyManagerUpdateQueued","inputs":[{"name":"newPolicyManager","type":"address","indexed":false,"internalType":"address"},{"name":"executeAfter","type":"uint256","indexed":false,"internalType":"uint256"}],"anonymous":false},{"type":"event","name":"PolicyManagerUpdated","inputs":[{"name":"oldPolicyManager","type":"address","indexed":false,"internalType":"address"},{"name":"newPolicyManager","type":"address","indexed":false,"internalType":"address"}],"anonymous":false},{"type":"event","name":"RedeemExecuted","inputs":[{"name":"redeemId","type":"bytes32","indexed":true,"internalType":"bytes32"}],"anonymous":false},{"type":"event","name":"RedeemRequested","inputs":[{"name":"redeemId","type":"bytes32","indexed":true,"internalType":"bytes32"},{"name":"user","type":"address","indexed":true,"internalType":"address"},{"name":"amount","type":"uint256","indexed":false,"internalType":"uint256"},{"name":"bankAccount","type":"string","indexed":false,"internalType":"string"}],"anonymous":false},{"type":"event","name":"RoleAdminChanged","inputs":[{"name":"role","type":"bytes32","indexed":true,"internalType":"bytes32"},{"name":"previousAdminRole","type":"bytes32","indexed":true,"internalType":"bytes32"},{"name":"newAdminRole","type":"bytes32","indexed":true,"internalType":"bytes32"}],"anonymous":false},{"type":"event","name":"RoleGranted","inputs":[{"name":"role","type":"bytes32","indexed":true,"internalType":"bytes32"},{"name":"account","type":"address","indexed":true,"internalType":"address"},{"name":"sender","type":"address","indexed":true,"internalType":"address"}],"anonymous":false},{"type":"event","name":"RoleRevoked","inputs":[{"name":"role","type":"bytes32","indexed":true,"internalType":"bytes32"},{"name":"account","type":"address","indexed":true,"internalType":"address"},{"name":"sender","type":"address","indexed":true,"internalType":"address"}],"anonymous":false},{"type":"event","name":"UIFRedeemReport","inputs":[{"name":"redeemId","type":"bytes32","indexed":true,"internalType":"bytes32"},{"name":"user","type":"address","indexed":true,"internalType":"address"},{"name":"amount","type":"uint256","indexed":false,"internalType":"uint256"}],"anonymous":false},{"type":"error","name":"AccessControlBadConfirmation","inputs":[]},{"type":"error","name":"AccessControlUnauthorizedAccount","inputs":[{"name":"account","type":"address","internalType":"address"},{"name":"neededRole","type":"bytes32","internalType":"bytes32"}]},{"type":"error","name":"BelowMinimum","inputs":[]},{"type":"error","name":"ComplianceViolation","inputs":[{"name":"reason","type":"string","internalType":"string"}]},{"type":"error","name":"InsufficientBalance","inputs":[]},{"type":"error","name":"InvalidCCID","inputs":[]},{"type":"error","name":"NoBankAccount","inputs":[]},{"type":"error","name":"NoUpdateQueued","inputs":[]},{"type":"error","name":"RedeemAlreadyProcessed","inputs":[]},{"type":"error","name":"ReentrancyGuardReentrantCall","inputs":[]},{"type":"error","name":"TimelockNotElapsed","inputs":[]}],"bytecode":{"object":"0x608060405234801562000010575f80fd5b50604051620016dc380380620016dc833981016040819052620000339162000150565b60018055620000435f8562000088565b50600280546001600160a01b039485166001600160a01b03199182161790915560038054938516938216939093179092556004805491909316911617905550620001aa565b5f828152602081815260408083206001600160a01b038516845290915281205460ff166200012b575f838152602081815260408083206001600160a01b03861684529091529020805460ff19166001179055620000e23390565b6001600160a01b0316826001600160a01b0316847f2f8788117e7eff1d82e926ec794901d17c78024a50270940304540a733656f0d60405160405180910390a45060016200012e565b505f5b92915050565b80516001600160a01b03811681146200014b575f80fd5b919050565b5f805f806080858703121562000164575f80fd5b6200016f8562000134565b93506200017f6020860162000134565b92506200018f6040860162000134565b91506200019f6060860162000134565b905092959194509250565b61152480620001b85f395ff3fe608060405234801561000f575f80fd5b50600436106101a1575f3560e01c8063625cf245116100f3578063a217fddf11610093578063c94c9c621161006e578063c94c9c621461039b578063d547741f146103ae578063db006a75146103c1578063fc0c546a146103d4575f80fd5b8063a217fddf1461036e578063ab3dbf3b14610375578063c629fe9014610388575f80fd5b80638b0bc06f116100ce5780638b0bc06f1461032457806391d14854146103375780639a0b56431461034a5780639d12a6ea1461035d575f80fd5b8063625cf2451461030057806367a69b27146103095780638b024ec314610311575f80fd5b806326c6f0681161015e57806336568abe1161013957806336568abe146102be57806339e09467146102d157806341813d72146102da57806345430d15146102ed575f80fd5b806326c6f0681461027b5780632a0c42a11461029b5780632f2ff15d146102ab575f80fd5b806301ffc9a7146101a557806307e2cea5146101cd57806316fbdd7f146102025780632094147814610224578063238953fe1461024f578063248a9ca314610259575b5f80fd5b6101b86101b3366004610fce565b6103e7565b60405190151581526020015b60405180910390f35b6101f47f68e79a7bf1e0bc45d0a330c573bc367f9cf464fd326078812f301165fbda4ef181565b6040519081526020016101c4565b6101b8610210366004610ffc565b60066020525f908152604090205460ff1681565b600854610237906001600160a01b031681565b6040516001600160a01b0390911681526020016101c4565b61025761041d565b005b6101f4610267366004610ffc565b5f9081526020819052604090206001015490565b61028e61028936600461102e565b6104eb565b6040516101c49190611094565b6101f468056bc75e2d6310000081565b6102576102b93660046110a6565b610582565b6102576102cc3660046110a6565b6105ac565b6101f460095481565b6102576102e83660046110d0565b6105e4565b600a54610237906001600160a01b031681565b6101f4600b5481565b610257610847565b61025761031f36600461102e565b610915565b6102576103323660046110f8565b610994565b6101b86103453660046110a6565b610a0a565b610257610358366004610ffc565b610a32565b6101f469074e3fadeb2a8090000081565b6101f45f81565b600454610237906001600160a01b031681565b61025761039636600461102e565b610acd565b600354610237906001600160a01b031681565b6102576103bc3660046110a6565b610b44565b6102576103cf366004610ffc565b610b68565b600254610237906001600160a01b031681565b5f6001600160e01b03198216637965db0b60e01b148061041757506301ffc9a760e01b6001600160e01b03198316145b92915050565b5f61042781610e65565b6008546001600160a01b03166104505760405163c7dba29760e01b815260040160405180910390fd5b6009544210156104735760405163333bd2cb60e11b815260040160405180910390fd5b600480546008546001600160a01b039081166001600160a01b031983168117909355604080519190921680825260208201939093527f8db82d3061f259c28cee172c5d954c7be330a7ee1d949d6fc6e29b7e4c12447e910160405180910390a15050600880546001600160a01b03191690555f600955565b60056020525f90815260409020805461050390611174565b80601f016020809104026020016040519081016040528092919081815260200182805461052f90611174565b801561057a5780601f106105515761010080835404028352916020019161057a565b820191905f5260205f20905b81548152906001019060200180831161055d57829003601f168201915b505050505081565b5f8281526020819052604090206001015461059c81610e65565b6105a68383610e6f565b50505050565b6001600160a01b03811633146105d55760405163334bd91960e11b815260040160405180910390fd5b6105df8282610efe565b505050565b5f6105ee81610e65565b6105f6610f67565b6002546040516370a0823160e01b81526001600160a01b038581166004830152849216906370a0823190602401602060405180830381865afa15801561063e573d5f803e3d5ffd5b505050506040513d601f19601f8201168201806040525081019061066291906111ac565b101561068157604051631e9acf1760e31b815260040160405180910390fd5b6001600160a01b0383165f90815260056020526040812080546106a390611174565b80601f01602080910402602001604051908101604052809291908181526020018280546106cf90611174565b801561071a5780601f106106f15761010080835404028352916020019161071a565b820191905f5260205f20905b8154815290600101906020018083116106fd57829003601f168201915b5050505050905080515f036107425760405163ceeace5560e01b815260040160405180910390fd5b60405164464f52434560d81b60208201526bffffffffffffffffffffffff19606086901b166025820152603981018490524260598201525f9060790160408051808303601f19018152908290528051602090910120600254632944252560e01b83526001600160a01b0388811660048501526024840188905291935016906329442525906044015f604051808303815f87803b1580156107e0575f80fd5b505af11580156107f2573d5f803e3d5ffd5b50505050846001600160a01b0316817ff68a4293801eda14e5106d3aabe56024da95f443c83d241d0164d90be694758e868533604051610834939291906111c3565b60405180910390a350506105df60018055565b5f61085181610e65565b600a546001600160a01b031661087a5760405163c7dba29760e01b815260040160405180910390fd5b600b5442101561089d5760405163333bd2cb60e11b815260040160405180910390fd5b60038054600a546001600160a01b039081166001600160a01b031983168117909355604080519190921680825260208201939093527f46591d742aa6a6e38ea65586285a27f19e4f86c92f2c6eb5055c3075f2434f7e910160405180910390a15050600a80546001600160a01b03191690555f600b55565b5f61091f81610e65565b600a80546001600160a01b0319166001600160a01b0384161790556109476202a30042611207565b600b819055604080516001600160a01b038516815260208101929092527f70a6c8a5ccc0b61ebaa139dbca03c3453141b2c52a2e17cd2b7b56fd66a66a3191015b60405180910390a15050565b5f61099e81610e65565b6001600160a01b0384165f9081526005602052604090206109c0838583611279565b50836001600160a01b03167f4520aa86670d50f44347eb369093c9f797ecb2fd8f9b027180b94546d233c47284846040516109fc929190611333565b60405180910390a250505050565b5f918252602082815260408084206001600160a01b0393909316845291905290205460ff1690565b7f68e79a7bf1e0bc45d0a330c573bc367f9cf464fd326078812f301165fbda4ef1610a5c81610e65565b5f8281526006602052604090205460ff1615610a8a57604051627b0ecf60e21b815260040160405180910390fd5b5f82815260066020526040808220805460ff191660011790555183917f789d262fe451c5c51ec359edb20e5fe525861508dfd46f6aeeadec4fd4dd372991a25050565b5f610ad781610e65565b600880546001600160a01b0319166001600160a01b038416179055610aff6202a30042611207565b6009819055604080516001600160a01b038516815260208101929092527fecbf2aff1e1cd5d157acc716e111256e689894f2062d8aa0a96969fbe1a896c79101610988565b5f82815260208190526040902060010154610b5e81610e65565b6105a68383610efe565b610b70610f67565b68056bc75e2d63100000811015610b9a5760405163860b82a960e01b815260040160405180910390fd5b600354604051638b1b925f60e01b81523360048201526001600160a01b0390911690638b1b925f90602401602060405180830381865afa158015610be0573d5f803e3d5ffd5b505050506040513d601f19601f82011682018060405250810190610c049190611370565b610c2157604051635c6a31e160e01b815260040160405180910390fd5b335f9081526005602052604090208054610c3a90611174565b90505f03610c5b5760405163ceeace5560e01b815260040160405180910390fd5b60048054604051636dbb8b9f60e01b81523392810192909252602482018390525f9182916001600160a01b031690636dbb8b9f906044015f60405180830381865afa158015610cac573d5f803e3d5ffd5b505050506040513d5f823e601f3d908101601f19168201604052610cd39190810190611389565b9150915081610d00578060405163e4b7440760e01b8152600401610cf79190611094565b60405180910390fd5b5f33844260075f815480929190610d1690611444565b9091555060405160609490941b6bffffffffffffffffffffffff1916602085015260348401929092526054830152607482015260940160408051808303601f1901815290829052805160209091012060025463079cc67960e41b8352336004840152602483018790529092506001600160a01b0316906379cc6790906044015f604051808303815f87803b158015610dac575f80fd5b505af1158015610dbe573d5f803e3d5ffd5b5050335f818152600560205260409081902090519193508492507f903a9d28cc733e9b7049d95f8fd92070506df995104f127f6c689f426518dfe191610e0591899161145c565b60405180910390a369074e3fadeb2a809000008410610e5657604051848152339082907f7634838e938f2f6307aabe63e76ec2869b406c6155268cbd4116927dc3dad2c99060200160405180910390a35b505050610e6260018055565b50565b610e628133610f91565b5f610e7a8383610a0a565b610ef7575f838152602081815260408083206001600160a01b03861684529091529020805460ff19166001179055610eaf3390565b6001600160a01b0316826001600160a01b0316847f2f8788117e7eff1d82e926ec794901d17c78024a50270940304540a733656f0d60405160405180910390a4506001610417565b505f610417565b5f610f098383610a0a565b15610ef7575f838152602081815260408083206001600160a01b0386168085529252808320805460ff1916905551339286917ff6391f5c32d9c69d2a47ea670b442974b53935d1edc7fd64eb21e047a839171b9190a4506001610417565b600260015403610f8a57604051633ee5aeb560e01b815260040160405180910390fd5b6002600155565b610f9b8282610a0a565b610fca5760405163e2517d3f60e01b81526001600160a01b038216600482015260248101839052604401610cf7565b5050565b5f60208284031215610fde575f80fd5b81356001600160e01b031981168114610ff5575f80fd5b9392505050565b5f6020828403121561100c575f80fd5b5035919050565b80356001600160a01b0381168114611029575f80fd5b919050565b5f6020828403121561103e575f80fd5b610ff582611013565b5f5b83811015611061578181015183820152602001611049565b50505f910152565b5f8151808452611080816020860160208601611047565b601f01601f19169290920160200192915050565b602081525f610ff56020830184611069565b5f80604083850312156110b7575f80fd5b823591506110c760208401611013565b90509250929050565b5f80604083850312156110e1575f80fd5b6110ea83611013565b946020939093013593505050565b5f805f6040848603121561110a575f80fd5b61111384611013565b9250602084013567ffffffffffffffff8082111561112f575f80fd5b818601915086601f830112611142575f80fd5b813581811115611150575f80fd5b876020828501011115611161575f80fd5b6020830194508093505050509250925092565b600181811c9082168061118857607f821691505b6020821081036111a657634e487b7160e01b5f52602260045260245ffd5b50919050565b5f602082840312156111bc575f80fd5b5051919050565b838152606060208201525f6111db6060830185611069565b905060018060a01b0383166040830152949350505050565b634e487b7160e01b5f52601160045260245ffd5b80820180821115610417576104176111f3565b634e487b7160e01b5f52604160045260245ffd5b601f8211156105df57805f5260205f20601f840160051c810160208510156112535750805b601f840160051c820191505b81811015611272575f815560010161125f565b5050505050565b67ffffffffffffffff8311156112915761129161121a565b6112a58361129f8354611174565b8361122e565b5f601f8411600181146112d6575f85156112bf5750838201355b5f19600387901b1c1916600186901b178355611272565b5f83815260208120601f198716915b8281101561130557868501358255602094850194600190920191016112e5565b5086821015611321575f1960f88860031b161c19848701351681555b505060018560011b0183555050505050565b60208152816020820152818360408301375f818301604090810191909152601f909201601f19160101919050565b80518015158114611029575f80fd5b5f60208284031215611380575f80fd5b610ff582611361565b5f806040838503121561139a575f80fd5b6113a383611361565b9150602083015167ffffffffffffffff808211156113bf575f80fd5b818501915085601f8301126113d2575f80fd5b8151818111156113e4576113e461121a565b604051601f8201601f19908116603f0116810190838211818310171561140c5761140c61121a565b81604052828152886020848701011115611424575f80fd5b611435836020830160208801611047565b80955050505050509250929050565b5f60018201611455576114556111f3565b5060010190565b8281525f6020604060208401525f845461147581611174565b806040870152606060018084165f811461149657600181146114b2576114df565b60ff19851660608a0152606084151560051b8a010195506114df565b895f5260205f205f5b858110156114d65781548b82018601529083019088016114bb565b8a016060019650505b5093999850505050505050505056fea26469706673582212202bb43f00727375486952e2c56c1fb64f21331dab969fac24e884926ed8d71bc464736f6c63430008180033","linkReferences":{}},"methodIdentifiers":{"DEFAULT_ADMIN_ROLE()":"a217fddf","MIN_REDEEM()":"2a0c42a1","ORACLE_ROLE()":"07e2cea5","UIF_THRESHOLD()":"9d12a6ea","bankAccountByWallet(address)":"26c6f068","ccidRegistry()":"c94c9c62","confirmRedeemExecuted(bytes32)":"9a0b5643","executeCCIDRegistryUpdate()":"67a69b27","executePolicyManagerUpdate()":"238953fe","forceRedeem(address,uint256)":"41813d72","getRoleAdmin(bytes32)":"248a9ca3","grantRole(bytes32,address)":"2f2ff15d","hasRole(bytes32,address)":"91d14854","linkBankAccount(address,string)":"8b0bc06f","pendingCCIDRegistry()":"45430d15","pendingCCIDRegistryTime()":"625cf245","pendingPolicyManager()":"20941478","pendingPolicyManagerTime()":"39e09467","policyManager()":"ab3dbf3b","processedRedeems(bytes32)":"16fbdd7f","redeem(uint256)":"db006a75","renounceRole(bytes32,address)":"36568abe","revokeRole(bytes32,address)":"d547741f","supportsInterface(bytes4)":"01ffc9a7","token()":"fc0c546a","updateCCIDRegistry(address)":"8b024ec3","updatePolicyManager(address)":"c629fe90"},"id":42}